{"abi":[{"type":"function","name":"acceptConnection","inputs":[{"name":"_from","type":"address","internalType":"address"}],"outputs":[],"stateMutability":"nonpayable"},{"type":"function","name":"areConnected","inputs":[{"name":"_a","type":"address","internalType":"address"},{"name":"_b","type":"address","internalType":"address"}],"outputs":[{"name":"","type":"bool","internalType":"bool"}],"stateMutability":"view"},{"type":"function","name":"getConnection","inputs":[{"name":"_a","type":"address","internalType":"address"},{"name":"_b","type":"address","internalType":"address"}],"outputs":[{"name":"","type":"tuple","internalType":"struct CompanyConnectionRegistry.Connection","components":[{"name":"status","type":"uint8","internalType":"enum CompanyConnectionRegistry.ConnectionStatus"},{"name":"requestedAt","type":"uint256","internalType":"uint256"},{"name":"connectedAt","type":"uint256","internalType":"uint256"},{"name":"requestedBy","type":"address","internalType":"address"}]}],"stateMutability":"view"},{"type":"function","name":"getConnectionStatus","inputs":[{"name":"_a","type":"address","internalType":"address"},{"name":"_b","type":"address","internalType":"address"}],"outputs":[{"name":"","type":"uint8","internalType":"enum CompanyConnectionRegistry.ConnectionStatus"}],"stateMutability":"view"},{"type":"function","name":"rejectConnection","inputs":[{"name":"_from","type":"address","internalType":"address"}],"outputs":[],"stateMutability":"nonpayable"},{"type":"function","name":"requestConnection","inputs":[{"name":"_to","type":"address","internalType":"address"}],"outputs":[],"stateMutability":"nonpayable"},{"type":"function","name":"revokeConnection","inputs":[{"name":"_otherCompany","type":"address","internalType":"address"}],"outputs":[],"stateMutability":"nonpayable"},{"type":"event","name":"ConnectionAccepted","inputs":[{"name":"from","type":"address","indexed":true,"internalType":"address"},{"name":"to","type":"address","indexed":true,"internalType":"address"},{"name":"timestamp","type":"uint256","indexed":false,"internalType":"uint256"}],"anonymous":false},{"type":"event","name":"ConnectionRejected","inputs":[{"name":"from","type":"address","indexed":true,"internalType":"address"},{"name":"to","type":"address","indexed":true,"internalType":"address"},{"name":"timestamp","type":"uint256","indexed":false,"internalType":"uint256"}],"anonymous":false},{"type":"event","name":"ConnectionRequested","inputs":[{"name":"from","type":"address","indexed":true,"internalType":"address"},{"name":"to","type":"address","indexed":true,"internalType":"address"},{"name":"timestamp","type":"uint256","indexed":false,"internalType":"uint256"}],"anonymous":false},{"type":"event","name":"ConnectionRevoked","inputs":[{"name":"from","type":"address","indexed":true,"internalType":"address"},{"name":"to","type":"address","indexed":true,"internalType":"address"},{"name":"timestamp","type":"uint256","indexed":false,"internalType":"uint256"}],"anonymous":false},{"type":"error","name":"CannotConnectToSelf","inputs":[]},{"type":"error","name":"ConnectionAlreadyExists","inputs":[]},{"type":"error","name":"InvalidConnectionStatus","inputs":[]},{"type":"error","name":"NoConnectionRequest","inputs":[]},{"type":"error","name":"NotAuthorized","inputs":[]}],"bytecode":{"object":"0x6080604052348015600e575f5ffd5b506111bd8061001c5f395ff3fe608060405234801561000f575f5ffd5b506004361061007b575f3560e01c806381abc1f11161005957806381abc1f1146100fb5780638d33e2f51461012b578063c99fc2f414610147578063fb8ac59f146101635761007b565b80632fd900ab1461007f5780635201bbb4146100af5780637942c243146100cb575b5f5ffd5b61009960048036038101906100949190610f95565b61017f565b6040516100a69190610fed565b60405180910390f35b6100c960048036038101906100c49190611006565b610235565b005b6100e560048036038101906100e09190610f95565b610451565b6040516100f291906110a4565b60405180910390f35b61011560048036038101906101109190610f95565b6104e0565b6040516101229190611146565b60405180910390f35b61014560048036038101906101409190611006565b610614565b005b610161600480360381019061015c9190611006565b610847565b005b61017d60048036038101906101789190611006565b610cd1565b005b5f6002600381111561019457610193611031565b5b5f5f8573ffffffffffffffffffffffffffffffffffffffff1673ffffffffffffffffffffffffffffffffffffffff1681526020019081526020015f205f8473ffffffffffffffffffffffffffffffffffffffff1673ffffffffffffffffffffffffffffffffffffffff1681526020019081526020015f205f015f9054906101000a900460ff16600381111561022c5761022b611031565b5b14905092915050565b5f5f5f8373ffffffffffffffffffffffffffffffffffffffff1673ffffffffffffffffffffffffffffffffffffffff1681526020019081526020015f205f3373ffffffffffffffffffffffffffffffffffffffff1673ffffffffffffffffffffffffffffffffffffffff1681526020019081526020015f209050600160038111156102c3576102c2611031565b5b815f015f9054906101000a900460ff1660038111156102e5576102e4611031565b5b1461031c576040517f364cd50200000000000000000000000000000000000000000000000000000000815260040160405180910390fd5b6003815f015f6101000a81548160ff0219169083600381111561034257610341611031565b5b021790555060035f5f3373ffffffffffffffffffffffffffffffffffffffff1673ffffffffffffffffffffffffffffffffffffffff1681526020019081526020015f205f8473ffffffffffffffffffffffffffffffffffffffff1673ffffffffffffffffffffffffffffffffffffffff1681526020019081526020015f205f015f6101000a81548160ff021916908360038111156103e3576103e2611031565b5b02179055503373ffffffffffffffffffffffffffffffffffffffff168273ffffffffffffffffffffffffffffffffffffffff167fc802dee7c48cad8b009b671abdef79f159992a783abcb5406e9fd5b52294948542604051610445919061116e565b60405180910390a35050565b5f5f5f8473ffffffffffffffffffffffffffffffffffffffff1673ffffffffffffffffffffffffffffffffffffffff1681526020019081526020015f205f8373ffffffffffffffffffffffffffffffffffffffff1673ffffffffffffffffffffffffffffffffffffffff1681526020019081526020015f205f015f9054906101000a900460ff16905092915050565b6104e8610eeb565b5f5f8473ffffffffffffffffffffffffffffffffffffffff1673ffffffffffffffffffffffffffffffffffffffff1681526020019081526020015f205f8373ffffffffffffffffffffffffffffffffffffffff1673ffffffffffffffffffffffffffffffffffffffff1681526020019081526020015f206040518060800160405290815f82015f9054906101000a900460ff16600381111561058d5761058c611031565b5b600381111561059f5761059e611031565b5b81526020016001820154815260200160028201548152602001600382015f9054906101000a900473ffffffffffffffffffffffffffffffffffffffff1673ffffffffffffffffffffffffffffffffffffffff1673ffffffffffffffffffffffffffffffffffffffff1681525050905092915050565b5f5f5f8373ffffffffffffffffffffffffffffffffffffffff1673ffffffffffffffffffffffffffffffffffffffff1681526020019081526020015f205f3373ffffffffffffffffffffffffffffffffffffffff1673ffffffffffffffffffffffffffffffffffffffff1681526020019081526020015f209050600160038111156106a2576106a1611031565b5b815f015f9054906101000a900460ff1660038111156106c4576106c3611031565b5b146106fb576040517f364cd50200000000000000000000000000000000000000000000000000000000815260040160405180910390fd5b6002815f015f6101000a81548160ff0219169083600381111561072157610720611031565b5b02179055504281600201819055505f5f5f3373ffffffffffffffffffffffffffffffffffffffff1673ffffffffffffffffffffffffffffffffffffffff1681526020019081526020015f205f8473ffffffffffffffffffffffffffffffffffffffff1673ffffffffffffffffffffffffffffffffffffffff1681526020019081526020015f2090506002815f015f6101000a81548160ff021916908360038111156107cf576107ce611031565b5b02179055504281600201819055503373ffffffffffffffffffffffffffffffffffffffff168373ffffffffffffffffffffffffffffffffffffffff167f473e4100f0815da70193c424add8f26695f5fa98d37209f464809daa12dabcd84260405161083a919061116e565b60405180910390a3505050565b8073ffffffffffffffffffffffffffffffffffffffff163373ffffffffffffffffffffffffffffffffffffffff16036108ac576040517f576dba0000000000000000000000000000000000000000000000000000000000815260040160405180910390fd5b5f5f5f3373ffffffffffffffffffffffffffffffffffffffff1673ffffffffffffffffffffffffffffffffffffffff1681526020019081526020015f205f8373ffffffffffffffffffffffffffffffffffffffff1673ffffffffffffffffffffffffffffffffffffffff1681526020019081526020015f2090506001600381111561093a57610939611031565b5b815f015f9054906101000a900460ff16600381111561095c5761095b611031565b5b148061099b57506002600381111561097757610976611031565b5b815f015f9054906101000a900460ff16600381111561099957610998611031565b5b145b156109d2576040517f47b3c9dd00000000000000000000000000000000000000000000000000000000815260040160405180910390fd5b6040518060800160405280600160038111156109f1576109f0611031565b5b81526020014281526020015f81526020013373ffffffffffffffffffffffffffffffffffffffff168152505f5f3373ffffffffffffffffffffffffffffffffffffffff1673ffffffffffffffffffffffffffffffffffffffff1681526020019081526020015f205f8473ffffffffffffffffffffffffffffffffffffffff1673ffffffffffffffffffffffffffffffffffffffff1681526020019081526020015f205f820151815f015f6101000a81548160ff02191690836003811115610abb57610aba611031565b5b021790555060208201518160010155604082015181600201556060820151816003015f6101000a81548173ffffffffffffffffffffffffffffffffffffffff021916908373ffffffffffffffffffffffffffffffffffffffff160217905550905050604051806080016040528060016003811115610b3c57610b3b611031565b5b81526020014281526020015f81526020013373ffffffffffffffffffffffffffffffffffffffff168152505f5f8473ffffffffffffffffffffffffffffffffffffffff1673ffffffffffffffffffffffffffffffffffffffff1681526020019081526020015f205f3373ffffffffffffffffffffffffffffffffffffffff1673ffffffffffffffffffffffffffffffffffffffff1681526020019081526020015f205f820151815f015f6101000a81548160ff02191690836003811115610c0657610c05611031565b5b021790555060208201518160010155604082015181600201556060820151816003015f6101000a81548173ffffffffffffffffffffffffffffffffffffffff021916908373ffffffffffffffffffffffffffffffffffffffff1602179055509050508173ffffffffffffffffffffffffffffffffffffffff163373ffffffffffffffffffffffffffffffffffffffff167f62b84fbbee1ae70dd77f037e0f7309d917ff8b29a077f7c386833aeb52562cc042604051610cc5919061116e565b60405180910390a35050565b5f5f5f3373ffffffffffffffffffffffffffffffffffffffff1673ffffffffffffffffffffffffffffffffffffffff1681526020019081526020015f205f8373ffffffffffffffffffffffffffffffffffffffff1673ffffffffffffffffffffffffffffffffffffffff1681526020019081526020015f20905060026003811115610d5f57610d5e611031565b5b815f015f9054906101000a900460ff166003811115610d8157610d80611031565b5b14610db8576040517f84303d3100000000000000000000000000000000000000000000000000000000815260040160405180910390fd5b5f815f015f6101000a81548160ff02191690836003811115610ddd57610ddc611031565b5b02179055505f5f5f8473ffffffffffffffffffffffffffffffffffffffff1673ffffffffffffffffffffffffffffffffffffffff1681526020019081526020015f205f3373ffffffffffffffffffffffffffffffffffffffff1673ffffffffffffffffffffffffffffffffffffffff1681526020019081526020015f205f015f6101000a81548160ff02191690836003811115610e7d57610e7c611031565b5b02179055508173ffffffffffffffffffffffffffffffffffffffff163373ffffffffffffffffffffffffffffffffffffffff167fa5249c3d3cd22dae6f79b74d9793d07c915ba1df1fd2c5d7fa59677b8506748b42604051610edf919061116e565b60405180910390a35050565b60405180608001604052805f6003811115610f0957610f08611031565b5b81526020015f81526020015f81526020015f73ffffffffffffffffffffffffffffffffffffffff1681525090565b5f5ffd5b5f73ffffffffffffffffffffffffffffffffffffffff82169050919050565b5f610f6482610f3b565b9050919050565b610f7481610f5a565b8114610f7e575f5ffd5b50565b5f81359050610f8f81610f6b565b92915050565b5f5f60408385031215610fab57610faa610f37565b5b5f610fb885828601610f81565b9250506020610fc985828601610f81565b9150509250929050565b5f8115159050919050565b610fe781610fd3565b82525050565b5f6020820190506110005f830184610fde565b92915050565b5f6020828403121561101b5761101a610f37565b5b5f61102884828501610f81565b91505092915050565b7f4e487b71000000000000000000000000000000000000000000000000000000005f52602160045260245ffd5b6004811061106f5761106e611031565b5b50565b5f81905061107f8261105e565b919050565b5f61108e82611072565b9050919050565b61109e81611084565b82525050565b5f6020820190506110b75f830184611095565b92915050565b6110c681611084565b82525050565b5f819050919050565b6110de816110cc565b82525050565b6110ed81610f5a565b82525050565b608082015f8201516111075f8501826110bd565b50602082015161111a60208501826110d5565b50604082015161112d60408501826110d5565b50606082015161114060608501826110e4565b50505050565b5f6080820190506111595f8301846110f3565b92915050565b611168816110cc565b82525050565b5f6020820190506111815f83018461115f565b9291505056fea264697066735822122069c96af71411f51a90ac142fea8ec0f0c00a74cfbd5bc146e004c47aebb41a6c64736f6c63430008230033","linkReferences":{}},"methodIdentifiers":{"acceptConnection(address)":"8d33e2f5","areConnected(address,address)":"2fd900ab","getConnection(address,address)":"81abc1f1","getConnectionStatus(address,address)":"7942c243","rejectConnection(address)":"5201bbb4","requestConnection(address)":"c99fc2f4","revokeConnection(address)":"fb8ac59f"},"id":0}