{"abi":[{"type":"constructor","inputs":[],"stateMutability":"nonpayable"},{"type":"function","name":"confirmDelivery","inputs":[{"name":"_poId","type":"uint256","internalType":"uint256"}],"outputs":[],"stateMutability":"nonpayable"},{"type":"function","name":"createPO","inputs":[{"name":"_supplier","type":"address","internalType":"address"},{"name":"_amount","type":"uint256","internalType":"uint256"},{"name":"_description","type":"string","internalType":"string"},{"name":"_deadline","type":"uint256","internalType":"uint256"}],"outputs":[{"name":"","type":"uint256","internalType":"uint256"}],"stateMutability":"nonpayable"},{"type":"function","name":"fundPO","inputs":[{"name":"_poId","type":"uint256","internalType":"uint256"}],"outputs":[],"stateMutability":"payable"},{"type":"function","name":"getPO","inputs":[{"name":"_poId","type":"uint256","internalType":"uint256"}],"outputs":[{"name":"","type":"tuple","internalType":"struct POEscrow.PurchaseOrder","components":[{"name":"id","type":"uint256","internalType":"uint256"},{"name":"buyer","type":"address","internalType":"address"},{"name":"supplier","type":"address","internalType":"address"},{"name":"amount","type":"uint256","internalType":"uint256"},{"name":"description","type":"string","internalType":"string"},{"name":"deadline","type":"uint256","internalType":"uint256"},{"name":"status","type":"uint8","internalType":"enum POEscrow.POStatus"},{"name":"fundedAmount","type":"uint256","internalType":"uint256"},{"name":"supplierConfirmedDelivery","type":"bool","internalType":"bool"},{"name":"buyerApprovedRelease","type":"bool","internalType":"bool"}]}],"stateMutability":"view"},{"type":"function","name":"getPOStatus","inputs":[{"name":"_poId","type":"uint256","internalType":"uint256"}],"outputs":[{"name":"","type":"uint8","internalType":"enum POEscrow.POStatus"}],"stateMutability":"view"},{"type":"function","name":"nextPOId","inputs":[],"outputs":[{"name":"","type":"uint256","internalType":"uint256"}],"stateMutability":"view"},{"type":"function","name":"owner","inputs":[],"outputs":[{"name":"","type":"address","internalType":"address"}],"stateMutability":"view"},{"type":"function","name":"purchaseOrders","inputs":[{"name":"","type":"uint256","internalType":"uint256"}],"outputs":[{"name":"id","type":"uint256","internalType":"uint256"},{"name":"buyer","type":"address","internalType":"address"},{"name":"supplier","type":"address","internalType":"address"},{"name":"amount","type":"uint256","internalType":"uint256"},{"name":"description","type":"string","internalType":"string"},{"name":"deadline","type":"uint256","internalType":"uint256"},{"name":"status","type":"uint8","internalType":"enum POEscrow.POStatus"},{"name":"fundedAmount","type":"uint256","internalType":"uint256"},{"name":"supplierConfirmedDelivery","type":"bool","internalType":"bool"},{"name":"buyerApprovedRelease","type":"bool","internalType":"bool"}],"stateMutability":"view"},{"type":"function","name":"refundPO","inputs":[{"name":"_poId","type":"uint256","internalType":"uint256"}],"outputs":[],"stateMutability":"nonpayable"},{"type":"function","name":"releaseFunds","inputs":[{"name":"_poId","type":"uint256","internalType":"uint256"}],"outputs":[],"stateMutability":"nonpayable"},{"type":"function","name":"renounceOwnership","inputs":[],"outputs":[],"stateMutability":"nonpayable"},{"type":"function","name":"transferOwnership","inputs":[{"name":"newOwner","type":"address","internalType":"address"}],"outputs":[],"stateMutability":"nonpayable"},{"type":"event","name":"DeliveryConfirmed","inputs":[{"name":"poId","type":"uint256","indexed":true,"internalType":"uint256"},{"name":"supplier","type":"address","indexed":false,"internalType":"address"}],"anonymous":false},{"type":"event","name":"FundsReleased","inputs":[{"name":"poId","type":"uint256","indexed":true,"internalType":"uint256"},{"name":"supplier","type":"address","indexed":false,"internalType":"address"},{"name":"amount","type":"uint256","indexed":false,"internalType":"uint256"}],"anonymous":false},{"type":"event","name":"OwnershipTransferred","inputs":[{"name":"previousOwner","type":"address","indexed":true,"internalType":"address"},{"name":"newOwner","type":"address","indexed":true,"internalType":"address"}],"anonymous":false},{"type":"event","name":"POCancelled","inputs":[{"name":"poId","type":"uint256","indexed":true,"internalType":"uint256"}],"anonymous":false},{"type":"event","name":"POCreated","inputs":[{"name":"poId","type":"uint256","indexed":true,"internalType":"uint256"},{"name":"buyer","type":"address","indexed":true,"internalType":"address"},{"name":"supplier","type":"address","indexed":true,"internalType":"address"},{"name":"amount","type":"uint256","indexed":false,"internalType":"uint256"},{"name":"description","type":"string","indexed":false,"internalType":"string"}],"anonymous":false},{"type":"event","name":"POFunded","inputs":[{"name":"poId","type":"uint256","indexed":true,"internalType":"uint256"},{"name":"amount","type":"uint256","indexed":false,"internalType":"uint256"}],"anonymous":false},{"type":"event","name":"PORefunded","inputs":[{"name":"poId","type":"uint256","indexed":true,"internalType":"uint256"},{"name":"buyer","type":"address","indexed":false,"internalType":"address"},{"name":"amount","type":"uint256","indexed":false,"internalType":"uint256"}],"anonymous":false},{"type":"error","name":"OwnableInvalidOwner","inputs":[{"name":"owner","type":"address","internalType":"address"}]},{"type":"error","name":"OwnableUnauthorizedAccount","inputs":[{"name":"account","type":"address","internalType":"address"}]},{"type":"error","name":"ReentrancyGuardReentrantCall","inputs":[]}],"bytecode":{"object":"0x608060405260018055348015610013575f5ffd5b50335f73ffffffffffffffffffffffffffffffffffffffff168173ffffffffffffffffffffffffffffffffffffffff1603610085575f6040517f1e4fbdf700000000000000000000000000000000000000000000000000000000815260040161007c91906101f0565b60405180910390fd5b610094816100be60201b60201c565b5060016100b36100a861017f60201b60201c565b6101a860201b60201c565b5f0181905550610209565b5f5f5f9054906101000a900473ffffffffffffffffffffffffffffffffffffffff169050815f5f6101000a81548173ffffffffffffffffffffffffffffffffffffffff021916908373ffffffffffffffffffffffffffffffffffffffff1602179055508173ffffffffffffffffffffffffffffffffffffffff168173ffffffffffffffffffffffffffffffffffffffff167f8be0079c531659141344cd1fd0a4f28419497f9722a3daafe3b4186f6b6457e060405160405180910390a35050565b5f7f9b779b17422d0df92223018b32b4d1fa46e071723d6817e2486d003becc55f005f1b905090565b5f819050919050565b5f73ffffffffffffffffffffffffffffffffffffffff82169050919050565b5f6101da826101b1565b9050919050565b6101ea816101d0565b82525050565b5f6020820190506102035f8301846101e1565b92915050565b612843806102165f395ff3fe6080604052600436106100a5575f3560e01c8063712da7a811610063578063712da7a8146101d4578063715018a6146101fc5780638da5cb5b146102125780639488c6af1461023c578063f2fde38b14610278578063fd84cb97146102a0576100a5565b806208d446146100a9578063061c17e1146100c5578063414f0cb3146101015780634324baed1461012b5780634d5dcb7b146101675780634d68282f146101ac575b5f5ffd5b6100c360048036038101906100be91906117a2565b6102c8565b005b3480156100d0575f5ffd5b506100eb60048036038101906100e691906117a2565b6104f0565b6040516100f89190611840565b60405180910390f35b34801561010c575f5ffd5b50610115610519565b6040516101229190611868565b60405180910390f35b348015610136575f5ffd5b50610151600480360381019061014c91906117a2565b61051f565b60405161015e9190611a3f565b60405180910390f35b348015610172575f5ffd5b5061018d600480360381019061018891906117a2565b61071b565b6040516101a39a99989796959493929190611ac5565b60405180910390f35b3480156101b7575f5ffd5b506101d260048036038101906101cd91906117a2565b610854565b005b3480156101df575f5ffd5b506101fa60048036038101906101f591906117a2565b610b94565b005b348015610207575f5ffd5b50610210610eed565b005b34801561021d575f5ffd5b50610226610f00565b6040516102339190611b66565b60405180910390f35b348015610247575f5ffd5b50610262600480360381019061025d9190611cd5565b610f27565b60405161026f9190611868565b60405180910390f35b348015610283575f5ffd5b5061029e60048036038101906102999190611d55565b61127b565b005b3480156102ab575f5ffd5b506102c660048036038101906102c191906117a2565b6112ff565b005b6102d06114b8565b5f60025f8381526020019081526020015f2090505f815f015403610329576040517f08c379a000000000000000000000000000000000000000000000000000000000815260040161032090611dca565b60405180910390fd5b806001015f9054906101000a900473ffffffffffffffffffffffffffffffffffffffff1673ffffffffffffffffffffffffffffffffffffffff163373ffffffffffffffffffffffffffffffffffffffff16146103ba576040517f08c379a00000000000000000000000000000000000000000000000000000000081526004016103b190611e32565b60405180910390fd5b5f60048111156103cd576103cc6117cd565b5b816006015f9054906101000a900460ff1660048111156103f0576103ef6117cd565b5b14610430576040517f08c379a000000000000000000000000000000000000000000000000000000000815260040161042790611e9a565b60405180910390fd5b8060030154341015610477576040517f08c379a000000000000000000000000000000000000000000000000000000000815260040161046e90611f02565b60405180910390fd5b3481600701819055506001816006015f6101000a81548160ff021916908360048111156104a7576104a66117cd565b5b0217905550817f83ac857b498c154e8ffeb1c66e59c9a7c2232f4e9e96b05f092db363eb064fdd346040516104dc9190611868565b60405180910390a2506104ed6114da565b50565b5f60025f8381526020019081526020015f206006015f9054906101000a900460ff169050919050565b60015481565b6105276116d2565b60025f8381526020019081526020015f20604051806101400160405290815f8201548152602001600182015f9054906101000a900473ffffffffffffffffffffffffffffffffffffffff1673ffffffffffffffffffffffffffffffffffffffff1673ffffffffffffffffffffffffffffffffffffffff168152602001600282015f9054906101000a900473ffffffffffffffffffffffffffffffffffffffff1673ffffffffffffffffffffffffffffffffffffffff1673ffffffffffffffffffffffffffffffffffffffff1681526020016003820154815260200160048201805461061190611f4d565b80601f016020809104026020016040519081016040528092919081815260200182805461063d90611f4d565b80156106885780601f1061065f57610100808354040283529160200191610688565b820191905f5260205f20905b81548152906001019060200180831161066b57829003601f168201915b5050505050815260200160058201548152602001600682015f9054906101000a900460ff1660048111156106bf576106be6117cd565b5b60048111156106d1576106d06117cd565b5b815260200160078201548152602001600882015f9054906101000a900460ff161515151581526020016008820160019054906101000a900460ff1615151515815250509050919050565b6002602052805f5260405f205f91509050805f015490806001015f9054906101000a900473ffffffffffffffffffffffffffffffffffffffff1690806002015f9054906101000a900473ffffffffffffffffffffffffffffffffffffffff169080600301549080600401805461079090611f4d565b80601f01602080910402602001604051908101604052809291908181526020018280546107bc90611f4d565b80156108075780601f106107de57610100808354040283529160200191610807565b820191905f5260205f20905b8154815290600101906020018083116107ea57829003601f168201915b505050505090806005015490806006015f9054906101000a900460ff1690806007015490806008015f9054906101000a900460ff16908060080160019054906101000a900460ff1690508a565b61085c6114b8565b5f60025f8381526020019081526020015f2090505f815f0154036108b5576040517f08c379a00000000000000000000000000000000000000000000000000000000081526004016108ac90611dca565b60405180910390fd5b806001015f9054906101000a900473ffffffffffffffffffffffffffffffffffffffff1673ffffffffffffffffffffffffffffffffffffffff163373ffffffffffffffffffffffffffffffffffffffff1614610946576040517f08c379a000000000000000000000000000000000000000000000000000000000815260040161093d90611fc7565b60405180910390fd5b6001600481111561095a576109596117cd565b5b816006015f9054906101000a900460ff16600481111561097d5761097c6117cd565b5b146109bd576040517f08c379a00000000000000000000000000000000000000000000000000000000081526004016109b49061202f565b60405180910390fd5b806008015f9054906101000a900460ff16610a0d576040517f08c379a0000000000000000000000000000000000000000000000000000000008152600401610a04906120bd565b60405180910390fd5b60018160080160016101000a81548160ff0219169083151502179055506003816006015f6101000a81548160ff02191690836004811115610a5157610a506117cd565b5b02179055505f816007015490505f826002015f9054906101000a900473ffffffffffffffffffffffffffffffffffffffff1673ffffffffffffffffffffffffffffffffffffffff1682604051610aa690612108565b5f6040518083038185875af1925050503d805f8114610ae0576040519150601f19603f3d011682016040523d82523d5f602084013e610ae5565b606091505b5050905080610b29576040517f08c379a0000000000000000000000000000000000000000000000000000000008152600401610b2090612166565b60405180910390fd5b837f6e3c6096795c8298a218b2cfb8bde42726ff7c9a3d27b4d3ba41ab7f74feb5fb846002015f9054906101000a900473ffffffffffffffffffffffffffffffffffffffff1684604051610b7e929190612184565b60405180910390a2505050610b916114da565b50565b610b9c6114b8565b5f60025f8381526020019081526020015f2090505f815f015403610bf5576040517f08c379a0000000000000000000000000000000000000000000000000000000008152600401610bec90611dca565b60405180910390fd5b806001015f9054906101000a900473ffffffffffffffffffffffffffffffffffffffff1673ffffffffffffffffffffffffffffffffffffffff163373ffffffffffffffffffffffffffffffffffffffff1614610c86576040517f08c379a0000000000000000000000000000000000000000000000000000000008152600401610c7d906121f5565b60405180910390fd5b60016004811115610c9a57610c996117cd565b5b816006015f9054906101000a900460ff166004811115610cbd57610cbc6117cd565b5b1480610cfc57505f6004811115610cd757610cd66117cd565b5b816006015f9054906101000a900460ff166004811115610cfa57610cf96117cd565b5b145b610d3b576040517f08c379a0000000000000000000000000000000000000000000000000000000008152600401610d329061225d565b60405180910390fd5b6004816006015f6101000a81548160ff02191690836004811115610d6257610d616117cd565b5b02179055505f81600701541115610eb3575f816007015490505f82600701819055505f826001015f9054906101000a900473ffffffffffffffffffffffffffffffffffffffff1673ffffffffffffffffffffffffffffffffffffffff1682604051610dcc90612108565b5f6040518083038185875af1925050503d805f8114610e06576040519150601f19603f3d011682016040523d82523d5f602084013e610e0b565b606091505b5050905080610e4f576040517f08c379a0000000000000000000000000000000000000000000000000000000008152600401610e46906122c5565b60405180910390fd5b837f0b31b80b6421bc80390ddc6d5e96dfd4e061a0267c5a44c1be6e880a7ebdd888846001015f9054906101000a900473ffffffffffffffffffffffffffffffffffffffff1684604051610ea4929190612184565b60405180910390a25050610ee1565b817f058fa80b89c80e49d26f81a54db34ae9f2e986ea46672b14414e7e5955348e4660405160405180910390a25b50610eea6114da565b50565b610ef56114f4565b610efe5f61157b565b565b5f5f5f9054906101000a900473ffffffffffffffffffffffffffffffffffffffff16905090565b5f5f73ffffffffffffffffffffffffffffffffffffffff168573ffffffffffffffffffffffffffffffffffffffff1603610f96576040517f08c379a0000000000000000000000000000000000000000000000000000000008152600401610f8d9061232d565b60405180910390fd5b5f8411610fd8576040517f08c379a0000000000000000000000000000000000000000000000000000000008152600401610fcf90612395565b60405180910390fd5b42821161101a576040517f08c379a0000000000000000000000000000000000000000000000000000000008152600401611011906123fd565b60405180910390fd5b5f60015f81548092919061102d90612448565b9190505590506040518061014001604052808281526020013373ffffffffffffffffffffffffffffffffffffffff1681526020018773ffffffffffffffffffffffffffffffffffffffff1681526020018681526020018581526020018481526020015f60048111156110a2576110a16117cd565b5b81526020015f81526020015f151581526020015f151581525060025f8381526020019081526020015f205f820151815f01556020820151816001015f6101000a81548173ffffffffffffffffffffffffffffffffffffffff021916908373ffffffffffffffffffffffffffffffffffffffff1602179055506040820151816002015f6101000a81548173ffffffffffffffffffffffffffffffffffffffff021916908373ffffffffffffffffffffffffffffffffffffffff16021790555060608201518160030155608082015181600401908161117f9190612640565b5060a0820151816005015560c0820151816006015f6101000a81548160ff021916908360048111156111b4576111b36117cd565b5b021790555060e08201518160070155610100820151816008015f6101000a81548160ff0219169083151502179055506101208201518160080160016101000a81548160ff0219169083151502179055509050508573ffffffffffffffffffffffffffffffffffffffff163373ffffffffffffffffffffffffffffffffffffffff16827f99791bf1ca2ca6ee4fd8bbce6d8fcf7fddba90ce388c0e81725e58329b8f80ff888860405161126792919061270f565b60405180910390a480915050949350505050565b6112836114f4565b5f73ffffffffffffffffffffffffffffffffffffffff168173ffffffffffffffffffffffffffffffffffffffff16036112f3575f6040517f1e4fbdf70000000000000000000000000000000000000000000000000000000081526004016112ea9190611b66565b60405180910390fd5b6112fc8161157b565b50565b5f60025f8381526020019081526020015f2090505f815f015403611358576040517f08c379a000000000000000000000000000000000000000000000000000000000815260040161134f90611dca565b60405180910390fd5b806002015f9054906101000a900473ffffffffffffffffffffffffffffffffffffffff1673ffffffffffffffffffffffffffffffffffffffff163373ffffffffffffffffffffffffffffffffffffffff16146113e9576040517f08c379a00000000000000000000000000000000000000000000000000000000081526004016113e090612787565b60405180910390fd5b600160048111156113fd576113fc6117cd565b5b816006015f9054906101000a900460ff1660048111156114205761141f6117cd565b5b14611460576040517f08c379a0000000000000000000000000000000000000000000000000000000008152600401611457906127ef565b60405180910390fd5b6001816008015f6101000a81548160ff021916908315150217905550817f64a783c6150854ae756454311c7625a965c757996ba8cc1a8c6205380f337250336040516114ac9190611b66565b60405180910390a25050565b6114c061163c565b60026114d26114cd61167d565b6116a6565b5f0181905550565b60016114ec6114e761167d565b6116a6565b5f0181905550565b6114fc6116af565b73ffffffffffffffffffffffffffffffffffffffff1661151a610f00565b73ffffffffffffffffffffffffffffffffffffffff16146115795761153d6116af565b6040517f118cdaa70000000000000000000000000000000000000000000000000000000081526004016115709190611b66565b60405180910390fd5b565b5f5f5f9054906101000a900473ffffffffffffffffffffffffffffffffffffffff169050815f5f6101000a81548173ffffffffffffffffffffffffffffffffffffffff021916908373ffffffffffffffffffffffffffffffffffffffff1602179055508173ffffffffffffffffffffffffffffffffffffffff168173ffffffffffffffffffffffffffffffffffffffff167f8be0079c531659141344cd1fd0a4f28419497f9722a3daafe3b4186f6b6457e060405160405180910390a35050565b6116446116b6565b1561167b576040517f3ee5aeb500000000000000000000000000000000000000000000000000000000815260040160405180910390fd5b565b5f7f9b779b17422d0df92223018b32b4d1fa46e071723d6817e2486d003becc55f005f1b905090565b5f819050919050565b5f33905090565b5f60026116c96116c461167d565b6116a6565b5f015414905090565b6040518061014001604052805f81526020015f73ffffffffffffffffffffffffffffffffffffffff1681526020015f73ffffffffffffffffffffffffffffffffffffffff1681526020015f8152602001606081526020015f81526020015f6004811115611742576117416117cd565b5b81526020015f81526020015f151581526020015f151581525090565b5f604051905090565b5f5ffd5b5f5ffd5b5f819050919050565b6117818161176f565b811461178b575f5ffd5b50565b5f8135905061179c81611778565b92915050565b5f602082840312156117b7576117b6611767565b5b5f6117c48482850161178e565b91505092915050565b7f4e487b71000000000000000000000000000000000000000000000000000000005f52602160045260245ffd5b6005811061180b5761180a6117cd565b5b50565b5f81905061181b826117fa565b919050565b5f61182a8261180e565b9050919050565b61183a81611820565b82525050565b5f6020820190506118535f830184611831565b92915050565b6118628161176f565b82525050565b5f60208201905061187b5f830184611859565b92915050565b61188a8161176f565b82525050565b5f73ffffffffffffffffffffffffffffffffffffffff82169050919050565b5f6118b982611890565b9050919050565b6118c9816118af565b82525050565b5f81519050919050565b5f82825260208201905092915050565b8281835e5f83830152505050565b5f601f19601f8301169050919050565b5f611911826118cf565b61191b81856118d9565b935061192b8185602086016118e9565b611934816118f7565b840191505092915050565b61194881611820565b82525050565b5f8115159050919050565b6119628161194e565b82525050565b5f61014083015f83015161197e5f860182611881565b50602083015161199160208601826118c0565b5060408301516119a460408601826118c0565b5060608301516119b76060860182611881565b50608083015184820360808601526119cf8282611907565b91505060a08301516119e460a0860182611881565b5060c08301516119f760c086018261193f565b5060e0830151611a0a60e0860182611881565b50610100830151611a1f610100860182611959565b50610120830151611a34610120860182611959565b508091505092915050565b5f6020820190508181035f830152611a578184611968565b905092915050565b611a68816118af565b82525050565b5f82825260208201905092915050565b5f611a88826118cf565b611a928185611a6e565b9350611aa28185602086016118e9565b611aab816118f7565b840191505092915050565b611abf8161194e565b82525050565b5f61014082019050611ad95f83018d611859565b611ae6602083018c611a5f565b611af3604083018b611a5f565b611b00606083018a611859565b8181036080830152611b128189611a7e565b9050611b2160a0830188611859565b611b2e60c0830187611831565b611b3b60e0830186611859565b611b49610100830185611ab6565b611b57610120830184611ab6565b9b9a5050505050505050505050565b5f602082019050611b795f830184611a5f565b92915050565b611b88816118af565b8114611b92575f5ffd5b50565b5f81359050611ba381611b7f565b92915050565b5f5ffd5b5f5ffd5b7f4e487b71000000000000000000000000000000000000000000000000000000005f52604160045260245ffd5b611be7826118f7565b810181811067ffffffffffffffff82111715611c0657611c05611bb1565b5b80604052505050565b5f611c1861175e565b9050611c248282611bde565b919050565b5f67ffffffffffffffff821115611c4357611c42611bb1565b5b611c4c826118f7565b9050602081019050919050565b828183375f83830152505050565b5f611c79611c7484611c29565b611c0f565b905082815260208101848484011115611c9557611c94611bad565b5b611ca0848285611c59565b509392505050565b5f82601f830112611cbc57611cbb611ba9565b5b8135611ccc848260208601611c67565b91505092915050565b5f5f5f5f60808587031215611ced57611cec611767565b5b5f611cfa87828801611b95565b9450506020611d0b8782880161178e565b935050604085013567ffffffffffffffff811115611d2c57611d2b61176b565b5b611d3887828801611ca8565b9250506060611d498782880161178e565b91505092959194509250565b5f60208284031215611d6a57611d69611767565b5b5f611d7784828501611b95565b91505092915050565b7f504f20646f6573206e6f742065786973740000000000000000000000000000005f82015250565b5f611db4601183611a6e565b9150611dbf82611d80565b602082019050919050565b5f6020820190508181035f830152611de181611da8565b9050919050565b7f4f6e6c792062757965722063616e2066756e64000000000000000000000000005f82015250565b5f611e1c601383611a6e565b9150611e2782611de8565b602082019050919050565b5f6020820190508181035f830152611e4981611e10565b9050919050565b7f504f20616c72656164792066756e646564206f722063616e63656c6c656400005f82015250565b5f611e84601e83611a6e565b9150611e8f82611e50565b602082019050919050565b5f6020820190508181035f830152611eb181611e78565b9050919050565b7f496e73756666696369656e742066756e64696e6720616d6f756e7400000000005f82015250565b5f611eec601b83611a6e565b9150611ef782611eb8565b602082019050919050565b5f6020820190508181035f830152611f1981611ee0565b9050919050565b7f4e487b71000000000000000000000000000000000000000000000000000000005f52602260045260245ffd5b5f6002820490506001821680611f6457607f821691505b602082108103611f7757611f76611f20565b5b50919050565b7f4f6e6c792062757965722063616e2072656c656173652066756e6473000000005f82015250565b5f611fb1601c83611a6e565b9150611fbc82611f7d565b602082019050919050565b5f6020820190508181035f830152611fde81611fa5565b9050919050565b7f504f206d7573742062652066756e6465640000000000000000000000000000005f82015250565b5f612019601183611a6e565b915061202482611fe5565b602082019050919050565b5f6020820190508181035f8301526120468161200d565b9050919050565b7f537570706c69657220686173206e6f7420636f6e6669726d65642064656c69765f8201527f6572790000000000000000000000000000000000000000000000000000000000602082015250565b5f6120a7602383611a6e565b91506120b28261204d565b604082019050919050565b5f6020820190508181035f8301526120d48161209b565b9050919050565b5f81905092915050565b50565b5f6120f35f836120db565b91506120fe826120e5565b5f82019050919050565b5f612112826120e8565b9150819050919050565b7f5472616e7366657220746f20737570706c696572206661696c656400000000005f82015250565b5f612150601b83611a6e565b915061215b8261211c565b602082019050919050565b5f6020820190508181035f83015261217d81612144565b9050919050565b5f6040820190506121975f830185611a5f565b6121a46020830184611859565b9392505050565b7f4f6e6c792062757965722063616e207265717565737420726566756e640000005f82015250565b5f6121df601d83611a6e565b91506121ea826121ab565b602082019050919050565b5f6020820190508181035f83015261220c816121d3565b9050919050565b7f43616e6e6f7420726566756e64207468697320504f00000000000000000000005f82015250565b5f612247601583611a6e565b915061225282612213565b602082019050919050565b5f6020820190508181035f8301526122748161223b565b9050919050565b7f526566756e64207472616e73666572206661696c6564000000000000000000005f82015250565b5f6122af601683611a6e565b91506122ba8261227b565b602082019050919050565b5f6020820190508181035f8301526122dc816122a3565b9050919050565b7f496e76616c696420737570706c696572000000000000000000000000000000005f82015250565b5f612317601083611a6e565b9150612322826122e3565b602082019050919050565b5f6020820190508181035f8301526123448161230b565b9050919050565b7f416d6f756e74206d7573742062652067726561746572207468616e20300000005f82015250565b5f61237f601d83611a6e565b915061238a8261234b565b602082019050919050565b5f6020820190508181035f8301526123ac81612373565b9050919050565b7f446561646c696e65206d75737420626520696e207468652066757475726500005f82015250565b5f6123e7601e83611a6e565b91506123f2826123b3565b602082019050919050565b5f6020820190508181035f830152612414816123db565b9050919050565b7f4e487b71000000000000000000000000000000000000000000000000000000005f52601160045260245ffd5b5f6124528261176f565b91507fffffffffffffffffffffffffffffffffffffffffffffffffffffffffffffffff82036124845761248361241b565b5b600182019050919050565b5f819050815f5260205f209050919050565b5f6020601f8301049050919050565b5f82821b905092915050565b5f600883026124eb7fffffffffffffffffffffffffffffffffffffffffffffffffffffffffffffffff826124b0565b6124f586836124b0565b95508019841693508086168417925050509392505050565b5f819050919050565b5f61253061252b6125268461176f565b61250d565b61176f565b9050919050565b5f819050919050565b61254983612516565b61255d61255582612537565b8484546124bc565b825550505050565b5f5f905090565b612574612565565b61257f818484612540565b505050565b5f5b828110156125a55761259a5f82840161256c565b600181019050612586565b505050565b601f8211156125f857828211156125f7576125c48161248f565b6125cd836124a1565b6125d6856124a1565b60208610156125e3575f90505b8083016125f282840382612584565b505050505b5b505050565b5f82821c905092915050565b5f6126185f19846008026125fd565b1980831691505092915050565b5f6126308383612609565b9150826002028217905092915050565b612649826118cf565b67ffffffffffffffff81111561266257612661611bb1565b5b61266c8254611f4d565b6126778282856125aa565b5f60209050601f8311600181146126a8575f8415612696578287015190505b6126a08582612625565b865550612707565b601f1984166126b68661248f565b5f5b828110156126dd578489015182556001820191506020850194506020810190506126b8565b868310156126fa57848901516126f6601f891682612609565b8355505b6001600288020188555050505b505050505050565b5f6040820190506127225f830185611859565b81810360208301526127348184611a7e565b90509392505050565b7f4f6e6c7920737570706c6965722063616e20636f6e6669726d000000000000005f82015250565b5f612771601983611a6e565b915061277c8261273d565b602082019050919050565b5f6020820190508181035f83015261279e81612765565b9050919050565b7f504f206d7573742062652066756e6465642066697273740000000000000000005f82015250565b5f6127d9601783611a6e565b91506127e4826127a5565b602082019050919050565b5f6020820190508181035f830152612806816127cd565b905091905056fea2646970667358221220b5993cd969cf39ac7b961eebc72b7bfe57bb92a469217c66a3e0618f1a0a8b9f64736f6c63430008230033","linkReferences":{}},"methodIdentifiers":{"confirmDelivery(uint256)":"fd84cb97","createPO(address,uint256,string,uint256)":"9488c6af","fundPO(uint256)":"0008d446","getPO(uint256)":"4324baed","getPOStatus(uint256)":"061c17e1","nextPOId()":"414f0cb3","owner()":"8da5cb5b","purchaseOrders(uint256)":"4d5dcb7b","refundPO(uint256)":"712da7a8","releaseFunds(uint256)":"4d68282f","renounceOwnership()":"715018a6","transferOwnership(address)":"f2fde38b"},"id":3}