{"abi":[{"type":"constructor","inputs":[{"name":"initialOwner","type":"address","internalType":"address"}],"stateMutability":"nonpayable"},{"type":"function","name":"getSupplier","inputs":[{"name":"wallet","type":"address","internalType":"address"}],"outputs":[{"name":"","type":"tuple","internalType":"struct SupplierRegistry.Supplier","components":[{"name":"wallet","type":"address","internalType":"address"},{"name":"tradingName","type":"string","internalType":"string"},{"name":"legalName","type":"string","internalType":"string"},{"name":"category","type":"string","internalType":"string"},{"name":"status","type":"uint8","internalType":"uint8"},{"name":"registeredAt","type":"uint256","internalType":"uint256"},{"name":"exists","type":"bool","internalType":"bool"}]}],"stateMutability":"view"},{"type":"function","name":"isVerified","inputs":[{"name":"wallet","type":"address","internalType":"address"}],"outputs":[{"name":"","type":"bool","internalType":"bool"}],"stateMutability":"view"},{"type":"function","name":"owner","inputs":[],"outputs":[{"name":"","type":"address","internalType":"address"}],"stateMutability":"view"},{"type":"function","name":"registerSupplier","inputs":[{"name":"tradingName","type":"string","internalType":"string"},{"name":"legalName","type":"string","internalType":"string"},{"name":"category","type":"string","internalType":"string"}],"outputs":[],"stateMutability":"nonpayable"},{"type":"function","name":"renounceOwnership","inputs":[],"outputs":[],"stateMutability":"nonpayable"},{"type":"function","name":"transferOwnership","inputs":[{"name":"newOwner","type":"address","internalType":"address"}],"outputs":[],"stateMutability":"nonpayable"},{"type":"function","name":"verifySupplier","inputs":[{"name":"supplierWallet","type":"address","internalType":"address"}],"outputs":[],"stateMutability":"nonpayable"},{"type":"event","name":"OwnershipTransferred","inputs":[{"name":"previousOwner","type":"address","indexed":true,"internalType":"address"},{"name":"newOwner","type":"address","indexed":true,"internalType":"address"}],"anonymous":false},{"type":"event","name":"SupplierRegistered","inputs":[{"name":"wallet","type":"address","indexed":true,"internalType":"address"},{"name":"tradingName","type":"string","indexed":false,"internalType":"string"},{"name":"timestamp","type":"uint256","indexed":false,"internalType":"uint256"}],"anonymous":false},{"type":"event","name":"SupplierVerified","inputs":[{"name":"wallet","type":"address","indexed":true,"internalType":"address"},{"name":"timestamp","type":"uint256","indexed":false,"internalType":"uint256"}],"anonymous":false},{"type":"error","name":"OwnableInvalidOwner","inputs":[{"name":"owner","type":"address","internalType":"address"}]},{"type":"error","name":"OwnableUnauthorizedAccount","inputs":[{"name":"account","type":"address","internalType":"address"}]}],"bytecode":{"object":"0x608060405234801561000f575f5ffd5b5060405161152f38038061152f833981810160405281019061003191906101d7565b805f73ffffffffffffffffffffffffffffffffffffffff168173ffffffffffffffffffffffffffffffffffffffff16036100a2575f6040517f1e4fbdf70000000000000000000000000000000000000000000000000000000081526004016100999190610211565b60405180910390fd5b6100b1816100b860201b60201c565b505061022a565b5f5f5f9054906101000a900473ffffffffffffffffffffffffffffffffffffffff169050815f5f6101000a81548173ffffffffffffffffffffffffffffffffffffffff021916908373ffffffffffffffffffffffffffffffffffffffff1602179055508173ffffffffffffffffffffffffffffffffffffffff168173ffffffffffffffffffffffffffffffffffffffff167f8be0079c531659141344cd1fd0a4f28419497f9722a3daafe3b4186f6b6457e060405160405180910390a35050565b5f5ffd5b5f73ffffffffffffffffffffffffffffffffffffffff82169050919050565b5f6101a68261017d565b9050919050565b6101b68161019c565b81146101c0575f5ffd5b50565b5f815190506101d1816101ad565b92915050565b5f602082840312156101ec576101eb610179565b5b5f6101f9848285016101c3565b91505092915050565b61020b8161019c565b82525050565b5f6020820190506102245f830184610202565b92915050565b6112f8806102375f395ff3fe608060405234801561000f575f5ffd5b506004361061007b575f3560e01c8063a1c2e79c11610059578063a1c2e79c146100c3578063b9209e33146100df578063f2fde38b1461010f578063fe7009f21461012b5761007b565b80634959e0871461007f578063715018a61461009b5780638da5cb5b146100a5575b5f5ffd5b61009960048036038101906100949190610a99565b61015b565b005b6100a3610298565b005b6100ad6102ab565b6040516100ba9190610ad3565b60405180910390f35b6100dd60048036038101906100d89190610c28565b6102d2565b005b6100f960048036038101906100f49190610a99565b610512565b6040516101069190610ce6565b60405180910390f35b61012960048036038101906101249190610a99565b61056c565b005b61014560048036038101906101409190610a99565b6105f0565b6040516101529190610e57565b60405180910390f35b61016361088b565b60015f8273ffffffffffffffffffffffffffffffffffffffff1673ffffffffffffffffffffffffffffffffffffffff1681526020019081526020015f206006015f9054906101000a900460ff166101ef576040517f08c379a00000000000000000000000000000000000000000000000000000000081526004016101e690610ed1565b60405180910390fd5b6001805f8373ffffffffffffffffffffffffffffffffffffffff1673ffffffffffffffffffffffffffffffffffffffff1681526020019081526020015f206004015f6101000a81548160ff021916908360ff1602179055508073ffffffffffffffffffffffffffffffffffffffff167f7bafbd7a9984eba0581f6f057d74ae148be153066a65046e51a130e3976564b14260405161028d9190610efe565b60405180910390a250565b6102a061088b565b6102a95f610912565b565b5f5f5f9054906101000a900473ffffffffffffffffffffffffffffffffffffffff16905090565b60015f3373ffffffffffffffffffffffffffffffffffffffff1673ffffffffffffffffffffffffffffffffffffffff1681526020019081526020015f206006015f9054906101000a900460ff161561035f576040517f08c379a000000000000000000000000000000000000000000000000000000000815260040161035690610f61565b60405180910390fd5b6040518060e001604052803373ffffffffffffffffffffffffffffffffffffffff1681526020018481526020018381526020018281526020015f60ff1681526020014281526020016001151581525060015f3373ffffffffffffffffffffffffffffffffffffffff1673ffffffffffffffffffffffffffffffffffffffff1681526020019081526020015f205f820151815f015f6101000a81548173ffffffffffffffffffffffffffffffffffffffff021916908373ffffffffffffffffffffffffffffffffffffffff1602179055506020820151816001019081610444919061118d565b50604082015181600201908161045a919061118d565b506060820151816003019081610470919061118d565b506080820151816004015f6101000a81548160ff021916908360ff16021790555060a0820151816005015560c0820151816006015f6101000a81548160ff0219169083151502179055509050503373ffffffffffffffffffffffffffffffffffffffff167f404912e5879656f81f03892f5cb7e3e23f84f60a20aba7cb02d586a5529e74768442604051610505929190611294565b60405180910390a2505050565b5f6001805f8473ffffffffffffffffffffffffffffffffffffffff1673ffffffffffffffffffffffffffffffffffffffff1681526020019081526020015f206004015f9054906101000a900460ff1660ff16149050919050565b61057461088b565b5f73ffffffffffffffffffffffffffffffffffffffff168173ffffffffffffffffffffffffffffffffffffffff16036105e4575f6040517f1e4fbdf70000000000000000000000000000000000000000000000000000000081526004016105db9190610ad3565b60405180910390fd5b6105ed81610912565b50565b6105f86109da565b60015f8373ffffffffffffffffffffffffffffffffffffffff1673ffffffffffffffffffffffffffffffffffffffff1681526020019081526020015f206040518060e00160405290815f82015f9054906101000a900473ffffffffffffffffffffffffffffffffffffffff1673ffffffffffffffffffffffffffffffffffffffff1673ffffffffffffffffffffffffffffffffffffffff1681526020016001820180546106a490610fac565b80601f01602080910402602001604051908101604052809291908181526020018280546106d090610fac565b801561071b5780601f106106f25761010080835404028352916020019161071b565b820191905f5260205f20905b8154815290600101906020018083116106fe57829003601f168201915b5050505050815260200160028201805461073490610fac565b80601f016020809104026020016040519081016040528092919081815260200182805461076090610fac565b80156107ab5780601f10610782576101008083540402835291602001916107ab565b820191905f5260205f20905b81548152906001019060200180831161078e57829003601f168201915b505050505081526020016003820180546107c490610fac565b80601f01602080910402602001604051908101604052809291908181526020018280546107f090610fac565b801561083b5780601f106108125761010080835404028352916020019161083b565b820191905f5260205f20905b81548152906001019060200180831161081e57829003601f168201915b50505050508152602001600482015f9054906101000a900460ff1660ff1660ff16815260200160058201548152602001600682015f9054906101000a900460ff1615151515815250509050919050565b6108936109d3565b73ffffffffffffffffffffffffffffffffffffffff166108b16102ab565b73ffffffffffffffffffffffffffffffffffffffff1614610910576108d46109d3565b6040517f118cdaa70000000000000000000000000000000000000000000000000000000081526004016109079190610ad3565b60405180910390fd5b565b5f5f5f9054906101000a900473ffffffffffffffffffffffffffffffffffffffff169050815f5f6101000a81548173ffffffffffffffffffffffffffffffffffffffff021916908373ffffffffffffffffffffffffffffffffffffffff1602179055508173ffffffffffffffffffffffffffffffffffffffff168173ffffffffffffffffffffffffffffffffffffffff167f8be0079c531659141344cd1fd0a4f28419497f9722a3daafe3b4186f6b6457e060405160405180910390a35050565b5f33905090565b6040518060e001604052805f73ffffffffffffffffffffffffffffffffffffffff1681526020016060815260200160608152602001606081526020015f60ff1681526020015f81526020015f151581525090565b5f604051905090565b5f5ffd5b5f5ffd5b5f73ffffffffffffffffffffffffffffffffffffffff82169050919050565b5f610a6882610a3f565b9050919050565b610a7881610a5e565b8114610a82575f5ffd5b50565b5f81359050610a9381610a6f565b92915050565b5f60208284031215610aae57610aad610a37565b5b5f610abb84828501610a85565b91505092915050565b610acd81610a5e565b82525050565b5f602082019050610ae65f830184610ac4565b92915050565b5f5ffd5b5f5ffd5b5f601f19601f8301169050919050565b7f4e487b71000000000000000000000000000000000000000000000000000000005f52604160045260245ffd5b610b3a82610af4565b810181811067ffffffffffffffff82111715610b5957610b58610b04565b5b80604052505050565b5f610b6b610a2e565b9050610b778282610b31565b919050565b5f67ffffffffffffffff821115610b9657610b95610b04565b5b610b9f82610af4565b9050602081019050919050565b828183375f83830152505050565b5f610bcc610bc784610b7c565b610b62565b905082815260208101848484011115610be857610be7610af0565b5b610bf3848285610bac565b509392505050565b5f82601f830112610c0f57610c0e610aec565b5b8135610c1f848260208601610bba565b91505092915050565b5f5f5f60608486031215610c3f57610c3e610a37565b5b5f84013567ffffffffffffffff811115610c5c57610c5b610a3b565b5b610c6886828701610bfb565b935050602084013567ffffffffffffffff811115610c8957610c88610a3b565b5b610c9586828701610bfb565b925050604084013567ffffffffffffffff811115610cb657610cb5610a3b565b5b610cc286828701610bfb565b9150509250925092565b5f8115159050919050565b610ce081610ccc565b82525050565b5f602082019050610cf95f830184610cd7565b92915050565b610d0881610a5e565b82525050565b5f81519050919050565b5f82825260208201905092915050565b8281835e5f83830152505050565b5f610d4082610d0e565b610d4a8185610d18565b9350610d5a818560208601610d28565b610d6381610af4565b840191505092915050565b5f60ff82169050919050565b610d8381610d6e565b82525050565b5f819050919050565b610d9b81610d89565b82525050565b610daa81610ccc565b82525050565b5f60e083015f830151610dc55f860182610cff565b5060208301518482036020860152610ddd8282610d36565b91505060408301518482036040860152610df78282610d36565b91505060608301518482036060860152610e118282610d36565b9150506080830151610e266080860182610d7a565b5060a0830151610e3960a0860182610d92565b5060c0830151610e4c60c0860182610da1565b508091505092915050565b5f6020820190508181035f830152610e6f8184610db0565b905092915050565b5f82825260208201905092915050565b7f537570706c69657220646f6573206e6f742065786973740000000000000000005f82015250565b5f610ebb601783610e77565b9150610ec682610e87565b602082019050919050565b5f6020820190508181035f830152610ee881610eaf565b9050919050565b610ef881610d89565b82525050565b5f602082019050610f115f830184610eef565b92915050565b7f537570706c69657220616c7265616479207265676973746572656400000000005f82015250565b5f610f4b601b83610e77565b9150610f5682610f17565b602082019050919050565b5f6020820190508181035f830152610f7881610f3f565b9050919050565b7f4e487b71000000000000000000000000000000000000000000000000000000005f52602260045260245ffd5b5f6002820490506001821680610fc357607f821691505b602082108103610fd657610fd5610f7f565b5b50919050565b5f819050815f5260205f209050919050565b5f6020601f8301049050919050565b5f82821b905092915050565b5f600883026110387fffffffffffffffffffffffffffffffffffffffffffffffffffffffffffffffff82610ffd565b6110428683610ffd565b95508019841693508086168417925050509392505050565b5f819050919050565b5f61107d61107861107384610d89565b61105a565b610d89565b9050919050565b5f819050919050565b61109683611063565b6110aa6110a282611084565b848454611009565b825550505050565b5f5f905090565b6110c16110b2565b6110cc81848461108d565b505050565b5f5b828110156110f2576110e75f8284016110b9565b6001810190506110d3565b505050565b601f82111561114557828211156111445761111181610fdc565b61111a83610fee565b61112385610fee565b6020861015611130575f90505b80830161113f828403826110d1565b505050505b5b505050565b5f82821c905092915050565b5f6111655f198460080261114a565b1980831691505092915050565b5f61117d8383611156565b9150826002028217905092915050565b61119682610d0e565b67ffffffffffffffff8111156111af576111ae610b04565b5b6111b98254610fac565b6111c48282856110f7565b5f60209050601f8311600181146111f5575f84156111e3578287015190505b6111ed8582611172565b865550611254565b601f19841661120386610fdc565b5f5b8281101561122a57848901518255600182019150602085019450602081019050611205565b868310156112475784890151611243601f891682611156565b8355505b6001600288020188555050505b505050505050565b5f61126682610d0e565b6112708185610e77565b9350611280818560208601610d28565b61128981610af4565b840191505092915050565b5f6040820190508181035f8301526112ac818561125c565b90506112bb6020830184610eef565b939250505056fea2646970667358221220c1032d93928ea4ae1d88f3e960355cc9ffa64727e63431f8ec10e8b5d089993c64736f6c63430008230033","linkReferences":{}},"methodIdentifiers":{"getSupplier(address)":"fe7009f2","isVerified(address)":"b9209e33","owner()":"8da5cb5b","registerSupplier(string,string,string)":"a1c2e79c","renounceOwnership()":"715018a6","transferOwnership(address)":"f2fde38b","verifySupplier(address)":"4959e087"},"id":5}