{
  "_format": "hh3-artifact-1",
  "contractName": "POEscrowV2",
  "sourceName": "contracts/POEscrowV2.sol",
  "abi": [
    {
      "inputs": [],
      "stateMutability": "nonpayable",
      "type": "constructor"
    },
    {
      "anonymous": false,
      "inputs": [
        {
          "indexed": true,
          "internalType": "uint256",
          "name": "poId",
          "type": "uint256"
        },
        {
          "indexed": true,
          "internalType": "address",
          "name": "buyer",
          "type": "address"
        },
        {
          "indexed": true,
          "internalType": "address",
          "name": "supplier",
          "type": "address"
        },
        {
          "indexed": false,
          "internalType": "uint256",
          "name": "amount",
          "type": "uint256"
        },
        {
          "indexed": false,
          "internalType": "string",
          "name": "metadataURI",
          "type": "string"
        }
      ],
      "name": "PO_Created",
      "type": "event"
    },
    {
      "anonymous": false,
      "inputs": [
        {
          "indexed": true,
          "internalType": "uint256",
          "name": "poId",
          "type": "uint256"
        }
      ],
      "name": "PO_Delivered",
      "type": "event"
    },
    {
      "anonymous": false,
      "inputs": [
        {
          "indexed": true,
          "internalType": "uint256",
          "name": "poId",
          "type": "uint256"
        },
        {
          "indexed": false,
          "internalType": "string",
          "name": "reason",
          "type": "string"
        }
      ],
      "name": "PO_Disputed",
      "type": "event"
    },
    {
      "anonymous": false,
      "inputs": [
        {
          "indexed": true,
          "internalType": "uint256",
          "name": "poId",
          "type": "uint256"
        },
        {
          "indexed": false,
          "internalType": "uint256",
          "name": "amount",
          "type": "uint256"
        }
      ],
      "name": "PO_Funded",
      "type": "event"
    },
    {
      "anonymous": false,
      "inputs": [
        {
          "indexed": true,
          "internalType": "uint256",
          "name": "poId",
          "type": "uint256"
        },
        {
          "indexed": false,
          "internalType": "address",
          "name": "winner",
          "type": "address"
        },
        {
          "indexed": false,
          "internalType": "uint256",
          "name": "amount",
          "type": "uint256"
        }
      ],
      "name": "PO_Resolved",
      "type": "event"
    },
    {
      "anonymous": false,
      "inputs": [
        {
          "indexed": true,
          "internalType": "uint256",
          "name": "poId",
          "type": "uint256"
        }
      ],
      "name": "PO_Shipped",
      "type": "event"
    },
    {
      "inputs": [
        {
          "internalType": "uint256",
          "name": "_poId",
          "type": "uint256"
        }
      ],
      "name": "confirmDelivery",
      "outputs": [],
      "stateMutability": "nonpayable",
      "type": "function"
    },
    {
      "inputs": [
        {
          "internalType": "address",
          "name": "_supplier",
          "type": "address"
        },
        {
          "internalType": "uint256",
          "name": "_amount",
          "type": "uint256"
        },
        {
          "internalType": "string",
          "name": "_metadataURI",
          "type": "string"
        }
      ],
      "name": "createPO",
      "outputs": [
        {
          "internalType": "uint256",
          "name": "",
          "type": "uint256"
        }
      ],
      "stateMutability": "nonpayable",
      "type": "function"
    },
    {
      "inputs": [
        {
          "internalType": "uint256",
          "name": "",
          "type": "uint256"
        }
      ],
      "name": "escrowedAmounts",
      "outputs": [
        {
          "internalType": "uint256",
          "name": "",
          "type": "uint256"
        }
      ],
      "stateMutability": "view",
      "type": "function"
    },
    {
      "inputs": [
        {
          "internalType": "uint256",
          "name": "_poId",
          "type": "uint256"
        }
      ],
      "name": "fundPO",
      "outputs": [],
      "stateMutability": "payable",
      "type": "function"
    },
    {
      "inputs": [
        {
          "internalType": "uint256",
          "name": "_poId",
          "type": "uint256"
        }
      ],
      "name": "getPO",
      "outputs": [
        {
          "components": [
            {
              "internalType": "uint256",
              "name": "id",
              "type": "uint256"
            },
            {
              "internalType": "address",
              "name": "buyer",
              "type": "address"
            },
            {
              "internalType": "address",
              "name": "supplier",
              "type": "address"
            },
            {
              "internalType": "uint256",
              "name": "amount",
              "type": "uint256"
            },
            {
              "internalType": "string",
              "name": "metadataURI",
              "type": "string"
            },
            {
              "internalType": "uint8",
              "name": "status",
              "type": "uint8"
            },
            {
              "internalType": "uint256",
              "name": "createdAt",
              "type": "uint256"
            },
            {
              "internalType": "uint256",
              "name": "fundedAt",
              "type": "uint256"
            }
          ],
          "internalType": "struct POEscrowV2.PurchaseOrder",
          "name": "",
          "type": "tuple"
        }
      ],
      "stateMutability": "view",
      "type": "function"
    },
    {
      "inputs": [
        {
          "internalType": "uint256",
          "name": "_poId",
          "type": "uint256"
        }
      ],
      "name": "markShipped",
      "outputs": [],
      "stateMutability": "nonpayable",
      "type": "function"
    },
    {
      "inputs": [],
      "name": "nextPOId",
      "outputs": [
        {
          "internalType": "uint256",
          "name": "",
          "type": "uint256"
        }
      ],
      "stateMutability": "view",
      "type": "function"
    },
    {
      "inputs": [],
      "name": "owner",
      "outputs": [
        {
          "internalType": "address",
          "name": "",
          "type": "address"
        }
      ],
      "stateMutability": "view",
      "type": "function"
    },
    {
      "inputs": [
        {
          "internalType": "uint256",
          "name": "",
          "type": "uint256"
        }
      ],
      "name": "purchaseOrders",
      "outputs": [
        {
          "internalType": "uint256",
          "name": "id",
          "type": "uint256"
        },
        {
          "internalType": "address",
          "name": "buyer",
          "type": "address"
        },
        {
          "internalType": "address",
          "name": "supplier",
          "type": "address"
        },
        {
          "internalType": "uint256",
          "name": "amount",
          "type": "uint256"
        },
        {
          "internalType": "string",
          "name": "metadataURI",
          "type": "string"
        },
        {
          "internalType": "uint8",
          "name": "status",
          "type": "uint8"
        },
        {
          "internalType": "uint256",
          "name": "createdAt",
          "type": "uint256"
        },
        {
          "internalType": "uint256",
          "name": "fundedAt",
          "type": "uint256"
        }
      ],
      "stateMutability": "view",
      "type": "function"
    },
    {
      "inputs": [
        {
          "internalType": "uint256",
          "name": "_poId",
          "type": "uint256"
        },
        {
          "internalType": "string",
          "name": "_reason",
          "type": "string"
        }
      ],
      "name": "raiseDispute",
      "outputs": [],
      "stateMutability": "nonpayable",
      "type": "function"
    },
    {
      "inputs": [
        {
          "internalType": "uint256",
          "name": "_poId",
          "type": "uint256"
        },
        {
          "internalType": "address",
          "name": "_winner",
          "type": "address"
        }
      ],
      "name": "resolveDispute",
      "outputs": [],
      "stateMutability": "nonpayable",
      "type": "function"
    }
  ],
  "bytecode": "0x6080604052348015600e575f5ffd5b50335f5f6101000a81548173ffffffffffffffffffffffffffffffffffffffff021916908373ffffffffffffffffffffffffffffffffffffffff16021790555060018081905550611a11806100625f395ff3fe60806040526004361061009a575f3560e01c80634d5dcb7b116100635780634d5dcb7b146101845780635aef573c146101c75780638da5cb5b146101ef578063c5ecd8a114610219578063eed90d6b14610255578063fd84cb971461027d5761009a565b806208d4461461009e5780630e33599d146100ba578063391e35ca146100e2578063414f0cb31461011e5780634324baed14610148575b5f5ffd5b6100b860048036038101906100b39190610ff1565b6102a5565b005b3480156100c5575f5ffd5b506100e060048036038101906100db9190611076565b6103fe565b005b3480156100ed575f5ffd5b5061010860048036038101906101039190610ff1565b6105cb565b60405161011591906110c3565b60405180910390f35b348015610129575f5ffd5b506101326105e0565b60405161013f91906110c3565b60405180910390f35b348015610153575f5ffd5b5061016e60048036038101906101699190610ff1565b6105e6565b60405161017b9190611232565b60405180910390f35b34801561018f575f5ffd5b506101aa60048036038101906101a59190610ff1565b61078f565b6040516101be9897969594939291906112b8565b60405180910390f35b3480156101d2575f5ffd5b506101ed60048036038101906101e8919061139c565b6108a3565b005b3480156101fa575f5ffd5b50610203610a3b565b60405161021091906113f9565b60405180910390f35b348015610224575f5ffd5b5061023f600480360381019061023a9190611412565b610a5f565b60405161024c91906110c3565b60405180910390f35b348015610260575f5ffd5b5061027b60048036038101906102769190610ff1565b610c97565b005b348015610288575f5ffd5b506102a3600480360381019061029e9190610ff1565b610da9565b005b5f60025f8381526020019081526020015f2090505f815f0154141580156102de57505f816005015f9054906101000a900460ff1660ff16145b80156102ed5750806003015434145b80156103475750806001015f9054906101000a900473ffffffffffffffffffffffffffffffffffffffff1673ffffffffffffffffffffffffffffffffffffffff163373ffffffffffffffffffffffffffffffffffffffff16145b610386576040517f08c379a000000000000000000000000000000000000000000000000000000000815260040161037d906114cd565b60405180910390fd5b6001816005015f6101000a81548160ff021916908360ff1602179055504281600701819055503460035f8481526020019081526020015f2081905550817fe56dc6401653b65cca2619ec28be1f717579256c762b08b581916331495c84bd346040516103f291906110c3565b60405180910390a25050565b5f5f9054906101000a900473ffffffffffffffffffffffffffffffffffffffff1673ffffffffffffffffffffffffffffffffffffffff163373ffffffffffffffffffffffffffffffffffffffff161461048c576040517f08c379a000000000000000000000000000000000000000000000000000000000815260040161048390611535565b60405180910390fd5b5f60025f8481526020019081526020015f2090506004816005015f9054906101000a900460ff1660ff16146104f6576040517f08c379a00000000000000000000000000000000000000000000000000000000081526004016104ed9061159d565b60405180910390fd5b6005816005015f6101000a81548160ff021916908360ff1602179055505f60035f8581526020019081526020015f205490505f81111561058b578273ffffffffffffffffffffffffffffffffffffffff166108fc8290811502906040515f60405180830381858888f19350505050158015610573573d5f5f3e3d5ffd5b505f60035f8681526020019081526020015f20819055505b837fdcec1e2185fb70728ce96d9d9c8de49cf99878fde36ba06918e19e571da80d4984836040516105bd9291906115bb565b60405180910390a250505050565b6003602052805f5260405f205f915090505481565b60015481565b6105ee610f49565b60025f8381526020019081526020015f20604051806101000160405290815f8201548152602001600182015f9054906101000a900473ffffffffffffffffffffffffffffffffffffffff1673ffffffffffffffffffffffffffffffffffffffff1673ffffffffffffffffffffffffffffffffffffffff168152602001600282015f9054906101000a900473ffffffffffffffffffffffffffffffffffffffff1673ffffffffffffffffffffffffffffffffffffffff1673ffffffffffffffffffffffffffffffffffffffff168152602001600382015481526020016004820180546106d89061160f565b80601f01602080910402602001604051908101604052809291908181526020018280546107049061160f565b801561074f5780601f106107265761010080835404028352916020019161074f565b820191905f5260205f20905b81548152906001019060200180831161073257829003601f168201915b50505050508152602001600582015f9054906101000a900460ff1660ff1660ff168152602001600682015481526020016007820154815250509050919050565b6002602052805f5260405f205f91509050805f015490806001015f9054906101000a900473ffffffffffffffffffffffffffffffffffffffff1690806002015f9054906101000a900473ffffffffffffffffffffffffffffffffffffffff16908060030154908060040180546108049061160f565b80601f01602080910402602001604051908101604052809291908181526020018280546108309061160f565b801561087b5780601f106108525761010080835404028352916020019161087b565b820191905f5260205f20905b81548152906001019060200180831161085e57829003601f168201915b505050505090806005015f9054906101000a900460ff16908060060154908060070154905088565b5f60025f8581526020019081526020015f2090506002816005015f9054906101000a900460ff1660ff1614806108ec57506003816005015f9054906101000a900460ff1660ff16145b801561099f5750806001015f9054906101000a900473ffffffffffffffffffffffffffffffffffffffff1673ffffffffffffffffffffffffffffffffffffffff163373ffffffffffffffffffffffffffffffffffffffff16148061099e5750806002015f9054906101000a900473ffffffffffffffffffffffffffffffffffffffff1673ffffffffffffffffffffffffffffffffffffffff163373ffffffffffffffffffffffffffffffffffffffff16145b5b6109de576040517f08c379a00000000000000000000000000000000000000000000000000000000081526004016109d5906114cd565b60405180910390fd5b6004816005015f6101000a81548160ff021916908360ff160217905550837f42b533fdaf531bc9b9d69eed1fe83182314ef4ed28d2d3813a34fd98fe25b5098484604051610a2d929190611679565b60405180910390a250505050565b5f5f9054906101000a900473ffffffffffffffffffffffffffffffffffffffff1681565b5f5f60015f815480929190610a73906116c8565b9190505590506040518061010001604052808281526020013373ffffffffffffffffffffffffffffffffffffffff1681526020018773ffffffffffffffffffffffffffffffffffffffff16815260200186815260200185858080601f0160208091040260200160405190810160405280939291908181526020018383808284375f81840152601f19601f8201169050808301925050505050505081526020015f60ff1681526020014281526020015f81525060025f8381526020019081526020015f205f820151815f01556020820151816001015f6101000a81548173ffffffffffffffffffffffffffffffffffffffff021916908373ffffffffffffffffffffffffffffffffffffffff1602179055506040820151816002015f6101000a81548173ffffffffffffffffffffffffffffffffffffffff021916908373ffffffffffffffffffffffffffffffffffffffff160217905550606082015181600301556080820151816004019081610be991906118dc565b5060a0820151816005015f6101000a81548160ff021916908360ff16021790555060c0820151816006015560e082015181600701559050508573ffffffffffffffffffffffffffffffffffffffff163373ffffffffffffffffffffffffffffffffffffffff16827f24026848cf163e58e8ce708bf61b8a9b2d09d15ba04fa8d7d802097abade5a61888888604051610c83939291906119ab565b60405180910390a480915050949350505050565b5f60025f8381526020019081526020015f2090506001816005015f9054906101000a900460ff1660ff16148015610d1c5750806002015f9054906101000a900473ffffffffffffffffffffffffffffffffffffffff1673ffffffffffffffffffffffffffffffffffffffff163373ffffffffffffffffffffffffffffffffffffffff16145b610d5b576040517f08c379a0000000000000000000000000000000000000000000000000000000008152600401610d52906114cd565b60405180910390fd5b6002816005015f6101000a81548160ff021916908360ff160217905550817f27fdc121ae0875adf04891c00994926e2a3f61079b5f5242f20887a331e6ae8b60405160405180910390a25050565b5f60025f8381526020019081526020015f2090506002816005015f9054906101000a900460ff1660ff16148015610e2e5750806001015f9054906101000a900473ffffffffffffffffffffffffffffffffffffffff1673ffffffffffffffffffffffffffffffffffffffff163373ffffffffffffffffffffffffffffffffffffffff16145b610e6d576040517f08c379a0000000000000000000000000000000000000000000000000000000008152600401610e64906114cd565b60405180910390fd5b6003816005015f6101000a81548160ff021916908360ff160217905550806002015f9054906101000a900473ffffffffffffffffffffffffffffffffffffffff1673ffffffffffffffffffffffffffffffffffffffff166108fc60035f8581526020019081526020015f205490811502906040515f60405180830381858888f19350505050158015610f01573d5f5f3e3d5ffd5b505f60035f8481526020019081526020015f2081905550817f3c26ca8d111f19cbea8c355a97fd77d52fa3c47af52a1756769891f21141c68e60405160405180910390a25050565b6040518061010001604052805f81526020015f73ffffffffffffffffffffffffffffffffffffffff1681526020015f73ffffffffffffffffffffffffffffffffffffffff1681526020015f8152602001606081526020015f60ff1681526020015f81526020015f81525090565b5f5ffd5b5f5ffd5b5f819050919050565b610fd081610fbe565b8114610fda575f5ffd5b50565b5f81359050610feb81610fc7565b92915050565b5f6020828403121561100657611005610fb6565b5b5f61101384828501610fdd565b91505092915050565b5f73ffffffffffffffffffffffffffffffffffffffff82169050919050565b5f6110458261101c565b9050919050565b6110558161103b565b811461105f575f5ffd5b50565b5f813590506110708161104c565b92915050565b5f5f6040838503121561108c5761108b610fb6565b5b5f61109985828601610fdd565b92505060206110aa85828601611062565b9150509250929050565b6110bd81610fbe565b82525050565b5f6020820190506110d65f8301846110b4565b92915050565b6110e581610fbe565b82525050565b6110f48161103b565b82525050565b5f81519050919050565b5f82825260208201905092915050565b8281835e5f83830152505050565b5f601f19601f8301169050919050565b5f61113c826110fa565b6111468185611104565b9350611156818560208601611114565b61115f81611122565b840191505092915050565b5f60ff82169050919050565b61117f8161116a565b82525050565b5f61010083015f83015161119b5f8601826110dc565b5060208301516111ae60208601826110eb565b5060408301516111c160408601826110eb565b5060608301516111d460608601826110dc565b50608083015184820360808601526111ec8282611132565b91505060a083015161120160a0860182611176565b5060c083015161121460c08601826110dc565b5060e083015161122760e08601826110dc565b508091505092915050565b5f6020820190508181035f83015261124a8184611185565b905092915050565b61125b8161103b565b82525050565b5f82825260208201905092915050565b5f61127b826110fa565b6112858185611261565b9350611295818560208601611114565b61129e81611122565b840191505092915050565b6112b28161116a565b82525050565b5f610100820190506112cc5f83018b6110b4565b6112d9602083018a611252565b6112e66040830189611252565b6112f360608301886110b4565b81810360808301526113058187611271565b905061131460a08301866112a9565b61132160c08301856110b4565b61132e60e08301846110b4565b9998505050505050505050565b5f5ffd5b5f5ffd5b5f5ffd5b5f5f83601f84011261135c5761135b61133b565b5b8235905067ffffffffffffffff8111156113795761137861133f565b5b60208301915083600182028301111561139557611394611343565b5b9250929050565b5f5f5f604084860312156113b3576113b2610fb6565b5b5f6113c086828701610fdd565b935050602084013567ffffffffffffffff8111156113e1576113e0610fba565b5b6113ed86828701611347565b92509250509250925092565b5f60208201905061140c5f830184611252565b92915050565b5f5f5f5f6060858703121561142a57611429610fb6565b5b5f61143787828801611062565b945050602061144887828801610fdd565b935050604085013567ffffffffffffffff81111561146957611468610fba565b5b61147587828801611347565b925092505092959194509250565b7f496e76616c6964000000000000000000000000000000000000000000000000005f82015250565b5f6114b7600783611261565b91506114c282611483565b602082019050919050565b5f6020820190508181035f8301526114e4816114ab565b9050919050565b7f4e6f74206f776e657200000000000000000000000000000000000000000000005f82015250565b5f61151f600983611261565b915061152a826114eb565b602082019050919050565b5f6020820190508181035f83015261154c81611513565b9050919050565b7f4e6f7420646973707574656400000000000000000000000000000000000000005f82015250565b5f611587600c83611261565b915061159282611553565b602082019050919050565b5f6020820190508181035f8301526115b48161157b565b9050919050565b5f6040820190506115ce5f830185611252565b6115db60208301846110b4565b9392505050565b7f4e487b71000000000000000000000000000000000000000000000000000000005f52602260045260245ffd5b5f600282049050600182168061162657607f821691505b602082108103611639576116386115e2565b5b50919050565b828183375f83830152505050565b5f6116588385611261565b935061166583858461163f565b61166e83611122565b840190509392505050565b5f6020820190508181035f83015261169281848661164d565b90509392505050565b7f4e487b71000000000000000000000000000000000000000000000000000000005f52601160045260245ffd5b5f6116d282610fbe565b91507fffffffffffffffffffffffffffffffffffffffffffffffffffffffffffffffff82036117045761170361169b565b5b600182019050919050565b7f4e487b71000000000000000000000000000000000000000000000000000000005f52604160045260245ffd5b5f819050815f5260205f209050919050565b5f6020601f8301049050919050565b5f82821b905092915050565b5f600883026117987fffffffffffffffffffffffffffffffffffffffffffffffffffffffffffffffff8261175d565b6117a2868361175d565b95508019841693508086168417925050509392505050565b5f819050919050565b5f6117dd6117d86117d384610fbe565b6117ba565b610fbe565b9050919050565b5f819050919050565b6117f6836117c3565b61180a611802826117e4565b848454611769565b825550505050565b5f5f905090565b611821611812565b61182c8184846117ed565b505050565b5b8181101561184f576118445f82611819565b600181019050611832565b5050565b601f821115611894576118658161173c565b61186e8461174e565b8101602085101561187d578190505b6118916118898561174e565b830182611831565b50505b505050565b5f82821c905092915050565b5f6118b45f1984600802611899565b1980831691505092915050565b5f6118cc83836118a5565b9150826002028217905092915050565b6118e5826110fa565b67ffffffffffffffff8111156118fe576118fd61170f565b5b611908825461160f565b611913828285611853565b5f60209050601f831160018114611944575f8415611932578287015190505b61193c85826118c1565b8655506119a3565b601f1984166119528661173c565b5f5b8281101561197957848901518255600182019150602085019450602081019050611954565b868310156119965784890151611992601f8916826118a5565b8355505b6001600288020188555050505b505050505050565b5f6040820190506119be5f8301866110b4565b81810360208301526119d181848661164d565b905094935050505056fea2646970667358221220d4195ce25f71d9833f3fc4a85d849b631940ed8b8297a90d7edb1e209693660664736f6c634300081c0033",
  "linkReferences": {},
  "deployedLinkReferences": {},
  "immutableReferences": {},
  "inputSourceName": "project/contracts/POEscrowV2.sol",
  "buildInfoId": "solc-0_8_28-4593b1884cea7bda5a5d0a02817981c8d536409e"
}