{
  "_format": "hh3-artifact-1",
  "contractName": "POEscrowUSDC",
  "sourceName": "contracts/POEscrowUSDC.sol",
  "abi": [
    {
      "inputs": [
        {
          "internalType": "address",
          "name": "_token",
          "type": "address"
        }
      ],
      "stateMutability": "nonpayable",
      "type": "constructor"
    },
    {
      "anonymous": false,
      "inputs": [
        {
          "indexed": true,
          "internalType": "uint256",
          "name": "poId",
          "type": "uint256"
        },
        {
          "indexed": true,
          "internalType": "address",
          "name": "buyer",
          "type": "address"
        },
        {
          "indexed": true,
          "internalType": "address",
          "name": "supplier",
          "type": "address"
        },
        {
          "indexed": false,
          "internalType": "uint256",
          "name": "amount",
          "type": "uint256"
        },
        {
          "indexed": false,
          "internalType": "string",
          "name": "metadataURI",
          "type": "string"
        }
      ],
      "name": "PO_Created",
      "type": "event"
    },
    {
      "anonymous": false,
      "inputs": [
        {
          "indexed": true,
          "internalType": "uint256",
          "name": "poId",
          "type": "uint256"
        }
      ],
      "name": "PO_Delivered",
      "type": "event"
    },
    {
      "anonymous": false,
      "inputs": [
        {
          "indexed": true,
          "internalType": "uint256",
          "name": "poId",
          "type": "uint256"
        },
        {
          "indexed": false,
          "internalType": "string",
          "name": "reason",
          "type": "string"
        }
      ],
      "name": "PO_Disputed",
      "type": "event"
    },
    {
      "anonymous": false,
      "inputs": [
        {
          "indexed": true,
          "internalType": "uint256",
          "name": "poId",
          "type": "uint256"
        },
        {
          "indexed": false,
          "internalType": "uint256",
          "name": "amount",
          "type": "uint256"
        }
      ],
      "name": "PO_Funded",
      "type": "event"
    },
    {
      "anonymous": false,
      "inputs": [
        {
          "indexed": true,
          "internalType": "uint256",
          "name": "poId",
          "type": "uint256"
        },
        {
          "indexed": false,
          "internalType": "address",
          "name": "winner",
          "type": "address"
        },
        {
          "indexed": false,
          "internalType": "uint256",
          "name": "amount",
          "type": "uint256"
        }
      ],
      "name": "PO_Resolved",
      "type": "event"
    },
    {
      "anonymous": false,
      "inputs": [
        {
          "indexed": true,
          "internalType": "uint256",
          "name": "poId",
          "type": "uint256"
        }
      ],
      "name": "PO_Shipped",
      "type": "event"
    },
    {
      "inputs": [
        {
          "internalType": "uint256",
          "name": "_poId",
          "type": "uint256"
        }
      ],
      "name": "confirmDelivery",
      "outputs": [],
      "stateMutability": "nonpayable",
      "type": "function"
    },
    {
      "inputs": [
        {
          "internalType": "address",
          "name": "_supplier",
          "type": "address"
        },
        {
          "internalType": "uint256",
          "name": "_amount",
          "type": "uint256"
        },
        {
          "internalType": "string",
          "name": "_metadataURI",
          "type": "string"
        }
      ],
      "name": "createPO",
      "outputs": [
        {
          "internalType": "uint256",
          "name": "",
          "type": "uint256"
        }
      ],
      "stateMutability": "nonpayable",
      "type": "function"
    },
    {
      "inputs": [
        {
          "internalType": "uint256",
          "name": "",
          "type": "uint256"
        }
      ],
      "name": "escrowedAmounts",
      "outputs": [
        {
          "internalType": "uint256",
          "name": "",
          "type": "uint256"
        }
      ],
      "stateMutability": "view",
      "type": "function"
    },
    {
      "inputs": [
        {
          "internalType": "uint256",
          "name": "_poId",
          "type": "uint256"
        }
      ],
      "name": "fundPO",
      "outputs": [],
      "stateMutability": "nonpayable",
      "type": "function"
    },
    {
      "inputs": [
        {
          "internalType": "uint256",
          "name": "_poId",
          "type": "uint256"
        }
      ],
      "name": "getPO",
      "outputs": [
        {
          "components": [
            {
              "internalType": "uint256",
              "name": "id",
              "type": "uint256"
            },
            {
              "internalType": "address",
              "name": "buyer",
              "type": "address"
            },
            {
              "internalType": "address",
              "name": "supplier",
              "type": "address"
            },
            {
              "internalType": "uint256",
              "name": "amount",
              "type": "uint256"
            },
            {
              "internalType": "string",
              "name": "metadataURI",
              "type": "string"
            },
            {
              "internalType": "uint8",
              "name": "status",
              "type": "uint8"
            },
            {
              "internalType": "uint256",
              "name": "createdAt",
              "type": "uint256"
            },
            {
              "internalType": "uint256",
              "name": "fundedAt",
              "type": "uint256"
            }
          ],
          "internalType": "struct POEscrowUSDC.PurchaseOrder",
          "name": "",
          "type": "tuple"
        }
      ],
      "stateMutability": "view",
      "type": "function"
    },
    {
      "inputs": [
        {
          "internalType": "uint256",
          "name": "_poId",
          "type": "uint256"
        }
      ],
      "name": "markShipped",
      "outputs": [],
      "stateMutability": "nonpayable",
      "type": "function"
    },
    {
      "inputs": [],
      "name": "nextPOId",
      "outputs": [
        {
          "internalType": "uint256",
          "name": "",
          "type": "uint256"
        }
      ],
      "stateMutability": "view",
      "type": "function"
    },
    {
      "inputs": [],
      "name": "owner",
      "outputs": [
        {
          "internalType": "address",
          "name": "",
          "type": "address"
        }
      ],
      "stateMutability": "view",
      "type": "function"
    },
    {
      "inputs": [
        {
          "internalType": "uint256",
          "name": "",
          "type": "uint256"
        }
      ],
      "name": "purchaseOrders",
      "outputs": [
        {
          "internalType": "uint256",
          "name": "id",
          "type": "uint256"
        },
        {
          "internalType": "address",
          "name": "buyer",
          "type": "address"
        },
        {
          "internalType": "address",
          "name": "supplier",
          "type": "address"
        },
        {
          "internalType": "uint256",
          "name": "amount",
          "type": "uint256"
        },
        {
          "internalType": "string",
          "name": "metadataURI",
          "type": "string"
        },
        {
          "internalType": "uint8",
          "name": "status",
          "type": "uint8"
        },
        {
          "internalType": "uint256",
          "name": "createdAt",
          "type": "uint256"
        },
        {
          "internalType": "uint256",
          "name": "fundedAt",
          "type": "uint256"
        }
      ],
      "stateMutability": "view",
      "type": "function"
    },
    {
      "inputs": [
        {
          "internalType": "uint256",
          "name": "_poId",
          "type": "uint256"
        },
        {
          "internalType": "string",
          "name": "_reason",
          "type": "string"
        }
      ],
      "name": "raiseDispute",
      "outputs": [],
      "stateMutability": "nonpayable",
      "type": "function"
    },
    {
      "inputs": [
        {
          "internalType": "uint256",
          "name": "_poId",
          "type": "uint256"
        },
        {
          "internalType": "address",
          "name": "_winner",
          "type": "address"
        }
      ],
      "name": "resolveDispute",
      "outputs": [],
      "stateMutability": "nonpayable",
      "type": "function"
    },
    {
      "inputs": [],
      "name": "token",
      "outputs": [
        {
          "internalType": "contract IERC20",
          "name": "",
          "type": "address"
        }
      ],
      "stateMutability": "view",
      "type": "function"
    }
  ],
  "bytecode": "0x60a060405234801561000f575f5ffd5b506040516121993803806121998339818101604052810190610031919061017d565b5f73ffffffffffffffffffffffffffffffffffffffff168173ffffffffffffffffffffffffffffffffffffffff160361009f576040517f08c379a000000000000000000000000000000000000000000000000000000000815260040161009690610202565b60405180910390fd5b335f5f6101000a81548173ffffffffffffffffffffffffffffffffffffffff021916908373ffffffffffffffffffffffffffffffffffffffff1602179055508073ffffffffffffffffffffffffffffffffffffffff1660808173ffffffffffffffffffffffffffffffffffffffff16815250506001808190555050610220565b5f5ffd5b5f73ffffffffffffffffffffffffffffffffffffffff82169050919050565b5f61014c82610123565b9050919050565b61015c81610142565b8114610166575f5ffd5b50565b5f8151905061017781610153565b92915050565b5f602082840312156101925761019161011f565b5b5f61019f84828501610169565b91505092915050565b5f82825260208201905092915050565b7f746f6b656e3d30000000000000000000000000000000000000000000000000005f82015250565b5f6101ec6007836101a8565b91506101f7826101b8565b602082019050919050565b5f6020820190508181035f830152610219816101e0565b9050919050565b608051611f4c61024d5f395f8181610336015281816105de01528181610f8701526110b70152611f4c5ff3fe608060405234801561000f575f5ffd5b50600436106100b1575f3560e01c80635aef573c1161006f5780635aef573c146101a25780638da5cb5b146101be578063c5ecd8a1146101dc578063eed90d6b1461020c578063fc0c546a14610228578063fd84cb9714610246576100b1565b806208d446146100b55780630e33599d146100d1578063391e35ca146100ed578063414f0cb31461011d5780634324baed1461013b5780634d5dcb7b1461016b575b5f5ffd5b6100cf60048036038101906100ca919061128c565b610262565b005b6100eb60048036038101906100e69190611311565b610494565b005b6101076004803603810190610102919061128c565b6106f7565b604051610114919061135e565b60405180910390f35b61012561070c565b604051610132919061135e565b60405180910390f35b6101556004803603810190610150919061128c565b610712565b60405161016291906114cd565b60405180910390f35b6101856004803603810190610180919061128c565b6108bb565b604051610199989796959493929190611553565b60405180910390f35b6101bc60048036038101906101b79190611637565b6109cf565b005b6101c6610b67565b6040516101d39190611694565b60405180910390f35b6101f660048036038101906101f191906116ad565b610b8b565b604051610203919061135e565b60405180910390f35b6102266004803603810190610221919061128c565b610e73565b005b610230610f85565b60405161023d9190611779565b60405180910390f35b610260600480360381019061025b919061128c565b610fa9565b005b5f60025f8381526020019081526020015f2090505f815f01541415801561029b57505f816005015f9054906101000a900460ff1660ff16145b80156102f55750806001015f9054906101000a900473ffffffffffffffffffffffffffffffffffffffff1673ffffffffffffffffffffffffffffffffffffffff163373ffffffffffffffffffffffffffffffffffffffff16145b610334576040517f08c379a000000000000000000000000000000000000000000000000000000000815260040161032b906117dc565b60405180910390fd5b7f000000000000000000000000000000000000000000000000000000000000000073ffffffffffffffffffffffffffffffffffffffff166323b872dd333084600301546040518463ffffffff1660e01b8152600401610395939291906117fa565b6020604051808303815f875af11580156103b1573d5f5f3e3d5ffd5b505050506040513d601f19601f820116820180604052508101906103d59190611864565b610414576040517f08c379a000000000000000000000000000000000000000000000000000000000815260040161040b906118d9565b60405180910390fd5b6001816005015f6101000a81548160ff021916908360ff160217905550428160070181905550806003015460035f8481526020019081526020015f2081905550817fe56dc6401653b65cca2619ec28be1f717579256c762b08b581916331495c84bd8260030154604051610488919061135e565b60405180910390a25050565b5f5f9054906101000a900473ffffffffffffffffffffffffffffffffffffffff1673ffffffffffffffffffffffffffffffffffffffff163373ffffffffffffffffffffffffffffffffffffffff1614610522576040517f08c379a000000000000000000000000000000000000000000000000000000000815260040161051990611941565b60405180910390fd5b5f60025f8481526020019081526020015f2090506004816005015f9054906101000a900460ff1660ff161461058c576040517f08c379a0000000000000000000000000000000000000000000000000000000008152600401610583906119a9565b60405180910390fd5b6005816005015f6101000a81548160ff021916908360ff1602179055505f60035f8581526020019081526020015f205490505f60035f8681526020019081526020015f20819055505f8111156106b7577f000000000000000000000000000000000000000000000000000000000000000073ffffffffffffffffffffffffffffffffffffffff1663a9059cbb84836040518363ffffffff1660e01b81526004016106379291906119c7565b6020604051808303815f875af1158015610653573d5f5f3e3d5ffd5b505050506040513d601f19601f820116820180604052508101906106779190611864565b6106b6576040517f08c379a00000000000000000000000000000000000000000000000000000000081526004016106ad90611a38565b60405180910390fd5b5b837fdcec1e2185fb70728ce96d9d9c8de49cf99878fde36ba06918e19e571da80d4984836040516106e99291906119c7565b60405180910390a250505050565b6003602052805f5260405f205f915090505481565b60015481565b61071a6111e4565b60025f8381526020019081526020015f20604051806101000160405290815f8201548152602001600182015f9054906101000a900473ffffffffffffffffffffffffffffffffffffffff1673ffffffffffffffffffffffffffffffffffffffff1673ffffffffffffffffffffffffffffffffffffffff168152602001600282015f9054906101000a900473ffffffffffffffffffffffffffffffffffffffff1673ffffffffffffffffffffffffffffffffffffffff1673ffffffffffffffffffffffffffffffffffffffff1681526020016003820154815260200160048201805461080490611a83565b80601f016020809104026020016040519081016040528092919081815260200182805461083090611a83565b801561087b5780601f106108525761010080835404028352916020019161087b565b820191905f5260205f20905b81548152906001019060200180831161085e57829003601f168201915b50505050508152602001600582015f9054906101000a900460ff1660ff1660ff168152602001600682015481526020016007820154815250509050919050565b6002602052805f5260405f205f91509050805f015490806001015f9054906101000a900473ffffffffffffffffffffffffffffffffffffffff1690806002015f9054906101000a900473ffffffffffffffffffffffffffffffffffffffff169080600301549080600401805461093090611a83565b80601f016020809104026020016040519081016040528092919081815260200182805461095c90611a83565b80156109a75780601f1061097e576101008083540402835291602001916109a7565b820191905f5260205f20905b81548152906001019060200180831161098a57829003601f168201915b505050505090806005015f9054906101000a900460ff16908060060154908060070154905088565b5f60025f8581526020019081526020015f2090506002816005015f9054906101000a900460ff1660ff161480610a1857506001816005015f9054906101000a900460ff1660ff16145b8015610acb5750806001015f9054906101000a900473ffffffffffffffffffffffffffffffffffffffff1673ffffffffffffffffffffffffffffffffffffffff163373ffffffffffffffffffffffffffffffffffffffff161480610aca5750806002015f9054906101000a900473ffffffffffffffffffffffffffffffffffffffff1673ffffffffffffffffffffffffffffffffffffffff163373ffffffffffffffffffffffffffffffffffffffff16145b5b610b0a576040517f08c379a0000000000000000000000000000000000000000000000000000000008152600401610b01906117dc565b60405180910390fd5b6004816005015f6101000a81548160ff021916908360ff160217905550837f42b533fdaf531bc9b9d69eed1fe83182314ef4ed28d2d3813a34fd98fe25b5098484604051610b59929190611aed565b60405180910390a250505050565b5f5f9054906101000a900473ffffffffffffffffffffffffffffffffffffffff1681565b5f5f73ffffffffffffffffffffffffffffffffffffffff168573ffffffffffffffffffffffffffffffffffffffff1603610bfa576040517f08c379a0000000000000000000000000000000000000000000000000000000008152600401610bf190611b59565b60405180910390fd5b5f8411610c3c576040517f08c379a0000000000000000000000000000000000000000000000000000000008152600401610c3390611bc1565b60405180910390fd5b5f60015f815480929190610c4f90611c0c565b9190505590506040518061010001604052808281526020013373ffffffffffffffffffffffffffffffffffffffff1681526020018773ffffffffffffffffffffffffffffffffffffffff16815260200186815260200185858080601f0160208091040260200160405190810160405280939291908181526020018383808284375f81840152601f19601f8201169050808301925050505050505081526020015f60ff1681526020014281526020015f81525060025f8381526020019081526020015f205f820151815f01556020820151816001015f6101000a81548173ffffffffffffffffffffffffffffffffffffffff021916908373ffffffffffffffffffffffffffffffffffffffff1602179055506040820151816002015f6101000a81548173ffffffffffffffffffffffffffffffffffffffff021916908373ffffffffffffffffffffffffffffffffffffffff160217905550606082015181600301556080820151816004019081610dc59190611e17565b5060a0820151816005015f6101000a81548160ff021916908360ff16021790555060c0820151816006015560e082015181600701559050508573ffffffffffffffffffffffffffffffffffffffff163373ffffffffffffffffffffffffffffffffffffffff16827f24026848cf163e58e8ce708bf61b8a9b2d09d15ba04fa8d7d802097abade5a61888888604051610e5f93929190611ee6565b60405180910390a480915050949350505050565b5f60025f8381526020019081526020015f2090506001816005015f9054906101000a900460ff1660ff16148015610ef85750806002015f9054906101000a900473ffffffffffffffffffffffffffffffffffffffff1673ffffffffffffffffffffffffffffffffffffffff163373ffffffffffffffffffffffffffffffffffffffff16145b610f37576040517f08c379a0000000000000000000000000000000000000000000000000000000008152600401610f2e906117dc565b60405180910390fd5b6002816005015f6101000a81548160ff021916908360ff160217905550817f27fdc121ae0875adf04891c00994926e2a3f61079b5f5242f20887a331e6ae8b60405160405180910390a25050565b7f000000000000000000000000000000000000000000000000000000000000000081565b5f60025f8381526020019081526020015f2090506002816005015f9054906101000a900460ff1660ff1614801561102e5750806001015f9054906101000a900473ffffffffffffffffffffffffffffffffffffffff1673ffffffffffffffffffffffffffffffffffffffff163373ffffffffffffffffffffffffffffffffffffffff16145b61106d576040517f08c379a0000000000000000000000000000000000000000000000000000000008152600401611064906117dc565b60405180910390fd5b6003816005015f6101000a81548160ff021916908360ff1602179055505f60035f8481526020019081526020015f205490505f60035f8581526020019081526020015f20819055507f000000000000000000000000000000000000000000000000000000000000000073ffffffffffffffffffffffffffffffffffffffff1663a9059cbb836002015f9054906101000a900473ffffffffffffffffffffffffffffffffffffffff16836040518363ffffffff1660e01b81526004016111339291906119c7565b6020604051808303815f875af115801561114f573d5f5f3e3d5ffd5b505050506040513d601f19601f820116820180604052508101906111739190611864565b6111b2576040517f08c379a00000000000000000000000000000000000000000000000000000000081526004016111a990611a38565b60405180910390fd5b827f3c26ca8d111f19cbea8c355a97fd77d52fa3c47af52a1756769891f21141c68e60405160405180910390a2505050565b6040518061010001604052805f81526020015f73ffffffffffffffffffffffffffffffffffffffff1681526020015f73ffffffffffffffffffffffffffffffffffffffff1681526020015f8152602001606081526020015f60ff1681526020015f81526020015f81525090565b5f5ffd5b5f5ffd5b5f819050919050565b61126b81611259565b8114611275575f5ffd5b50565b5f8135905061128681611262565b92915050565b5f602082840312156112a1576112a0611251565b5b5f6112ae84828501611278565b91505092915050565b5f73ffffffffffffffffffffffffffffffffffffffff82169050919050565b5f6112e0826112b7565b9050919050565b6112f0816112d6565b81146112fa575f5ffd5b50565b5f8135905061130b816112e7565b92915050565b5f5f6040838503121561132757611326611251565b5b5f61133485828601611278565b9250506020611345858286016112fd565b9150509250929050565b61135881611259565b82525050565b5f6020820190506113715f83018461134f565b92915050565b61138081611259565b82525050565b61138f816112d6565b82525050565b5f81519050919050565b5f82825260208201905092915050565b8281835e5f83830152505050565b5f601f19601f8301169050919050565b5f6113d782611395565b6113e1818561139f565b93506113f18185602086016113af565b6113fa816113bd565b840191505092915050565b5f60ff82169050919050565b61141a81611405565b82525050565b5f61010083015f8301516114365f860182611377565b5060208301516114496020860182611386565b50604083015161145c6040860182611386565b50606083015161146f6060860182611377565b506080830151848203608086015261148782826113cd565b91505060a083015161149c60a0860182611411565b5060c08301516114af60c0860182611377565b5060e08301516114c260e0860182611377565b508091505092915050565b5f6020820190508181035f8301526114e58184611420565b905092915050565b6114f6816112d6565b82525050565b5f82825260208201905092915050565b5f61151682611395565b61152081856114fc565b93506115308185602086016113af565b611539816113bd565b840191505092915050565b61154d81611405565b82525050565b5f610100820190506115675f83018b61134f565b611574602083018a6114ed565b61158160408301896114ed565b61158e606083018861134f565b81810360808301526115a0818761150c565b90506115af60a0830186611544565b6115bc60c083018561134f565b6115c960e083018461134f565b9998505050505050505050565b5f5ffd5b5f5ffd5b5f5ffd5b5f5f83601f8401126115f7576115f66115d6565b5b8235905067ffffffffffffffff811115611614576116136115da565b5b6020830191508360018202830111156116305761162f6115de565b5b9250929050565b5f5f5f6040848603121561164e5761164d611251565b5b5f61165b86828701611278565b935050602084013567ffffffffffffffff81111561167c5761167b611255565b5b611688868287016115e2565b92509250509250925092565b5f6020820190506116a75f8301846114ed565b92915050565b5f5f5f5f606085870312156116c5576116c4611251565b5b5f6116d2878288016112fd565b94505060206116e387828801611278565b935050604085013567ffffffffffffffff81111561170457611703611255565b5b611710878288016115e2565b925092505092959194509250565b5f819050919050565b5f61174161173c611737846112b7565b61171e565b6112b7565b9050919050565b5f61175282611727565b9050919050565b5f61176382611748565b9050919050565b61177381611759565b82525050565b5f60208201905061178c5f83018461176a565b92915050565b7f496e76616c6964000000000000000000000000000000000000000000000000005f82015250565b5f6117c66007836114fc565b91506117d182611792565b602082019050919050565b5f6020820190508181035f8301526117f3816117ba565b9050919050565b5f60608201905061180d5f8301866114ed565b61181a60208301856114ed565b611827604083018461134f565b949350505050565b5f8115159050919050565b6118438161182f565b811461184d575f5ffd5b50565b5f8151905061185e8161183a565b92915050565b5f6020828403121561187957611878611251565b5b5f61188684828501611850565b91505092915050565b7f7472616e7366657246726f6d206661696c6564000000000000000000000000005f82015250565b5f6118c36013836114fc565b91506118ce8261188f565b602082019050919050565b5f6020820190508181035f8301526118f0816118b7565b9050919050565b7f4e6f74206f776e657200000000000000000000000000000000000000000000005f82015250565b5f61192b6009836114fc565b9150611936826118f7565b602082019050919050565b5f6020820190508181035f8301526119588161191f565b9050919050565b7f4e6f7420646973707574656400000000000000000000000000000000000000005f82015250565b5f611993600c836114fc565b915061199e8261195f565b602082019050919050565b5f6020820190508181035f8301526119c081611987565b9050919050565b5f6040820190506119da5f8301856114ed565b6119e7602083018461134f565b9392505050565b7f7472616e73666572206661696c656400000000000000000000000000000000005f82015250565b5f611a22600f836114fc565b9150611a2d826119ee565b602082019050919050565b5f6020820190508181035f830152611a4f81611a16565b9050919050565b7f4e487b71000000000000000000000000000000000000000000000000000000005f52602260045260245ffd5b5f6002820490506001821680611a9a57607f821691505b602082108103611aad57611aac611a56565b5b50919050565b828183375f83830152505050565b5f611acc83856114fc565b9350611ad9838584611ab3565b611ae2836113bd565b840190509392505050565b5f6020820190508181035f830152611b06818486611ac1565b90509392505050565b7f737570706c6965723d30000000000000000000000000000000000000000000005f82015250565b5f611b43600a836114fc565b9150611b4e82611b0f565b602082019050919050565b5f6020820190508181035f830152611b7081611b37565b9050919050565b7f616d6f756e743d300000000000000000000000000000000000000000000000005f82015250565b5f611bab6008836114fc565b9150611bb682611b77565b602082019050919050565b5f6020820190508181035f830152611bd881611b9f565b9050919050565b7f4e487b71000000000000000000000000000000000000000000000000000000005f52601160045260245ffd5b5f611c1682611259565b91507fffffffffffffffffffffffffffffffffffffffffffffffffffffffffffffffff8203611c4857611c47611bdf565b5b600182019050919050565b7f4e487b71000000000000000000000000000000000000000000000000000000005f52604160045260245ffd5b5f819050815f5260205f209050919050565b5f6020601f8301049050919050565b5f82821b905092915050565b5f60088302611cdc7fffffffffffffffffffffffffffffffffffffffffffffffffffffffffffffffff82611ca1565b611ce68683611ca1565b95508019841693508086168417925050509392505050565b5f611d18611d13611d0e84611259565b61171e565b611259565b9050919050565b5f819050919050565b611d3183611cfe565b611d45611d3d82611d1f565b848454611cad565b825550505050565b5f5f905090565b611d5c611d4d565b611d67818484611d28565b505050565b5b81811015611d8a57611d7f5f82611d54565b600181019050611d6d565b5050565b601f821115611dcf57611da081611c80565b611da984611c92565b81016020851015611db8578190505b611dcc611dc485611c92565b830182611d6c565b50505b505050565b5f82821c905092915050565b5f611def5f1984600802611dd4565b1980831691505092915050565b5f611e078383611de0565b9150826002028217905092915050565b611e2082611395565b67ffffffffffffffff811115611e3957611e38611c53565b5b611e438254611a83565b611e4e828285611d8e565b5f60209050601f831160018114611e7f575f8415611e6d578287015190505b611e778582611dfc565b865550611ede565b601f198416611e8d86611c80565b5f5b82811015611eb457848901518255600182019150602085019450602081019050611e8f565b86831015611ed15784890151611ecd601f891682611de0565b8355505b6001600288020188555050505b505050505050565b5f604082019050611ef95f83018661134f565b8181036020830152611f0c818486611ac1565b905094935050505056fea2646970667358221220ba61e1c8a65b788c510e773cec4f6db98182b6b04879554ad9f963d6658e466364736f6c634300081c0033",
  "linkReferences": {},
  "deployedLinkReferences": {},
  "immutableReferences": {
    "44": [
      {
        "length": 32,
        "start": 822
      },
      {
        "length": 32,
        "start": 1502
      },
      {
        "length": 32,
        "start": 3975
      },
      {
        "length": 32,
        "start": 4279
      }
    ]
  },
  "inputSourceName": "project/contracts/POEscrowUSDC.sol",
  "buildInfoId": "solc-0_8_28-874825e3d4878e2ca7824216f402e9b51461505b"
}