{"abi":[{"type":"constructor","inputs":[],"stateMutability":"nonpayable"},{"type":"function","name":"confirmDelivery","inputs":[{"name":"_poId","type":"uint256","internalType":"uint256"}],"outputs":[],"stateMutability":"nonpayable"},{"type":"function","name":"createPO","inputs":[{"name":"_supplier","type":"address","internalType":"address"},{"name":"_amount","type":"uint256","internalType":"uint256"},{"name":"_description","type":"string","internalType":"string"},{"name":"_deadline","type":"uint256","internalType":"uint256"}],"outputs":[{"name":"","type":"uint256","internalType":"uint256"}],"stateMutability":"nonpayable"},{"type":"function","name":"fundPO","inputs":[{"name":"_poId","type":"uint256","internalType":"uint256"}],"outputs":[],"stateMutability":"payable"},{"type":"function","name":"getPO","inputs":[{"name":"_poId","type":"uint256","internalType":"uint256"}],"outputs":[{"name":"","type":"tuple","internalType":"struct POEscrowV2.PurchaseOrder","components":[{"name":"id","type":"uint256","internalType":"uint256"},{"name":"buyer","type":"address","internalType":"address"},{"name":"supplier","type":"address","internalType":"address"},{"name":"amount","type":"uint256","internalType":"uint256"},{"name":"description","type":"string","internalType":"string"},{"name":"deadline","type":"uint256","internalType":"uint256"},{"name":"status","type":"uint8","internalType":"enum POEscrowV2.POStatus"},{"name":"fundedAmount","type":"uint256","internalType":"uint256"},{"name":"supplierConfirmedDelivery","type":"bool","internalType":"bool"},{"name":"buyerApprovedRelease","type":"bool","internalType":"bool"}]}],"stateMutability":"view"},{"type":"function","name":"getPOStatus","inputs":[{"name":"_poId","type":"uint256","internalType":"uint256"}],"outputs":[{"name":"","type":"uint8","internalType":"enum POEscrowV2.POStatus"}],"stateMutability":"view"},{"type":"function","name":"owner","inputs":[],"outputs":[{"name":"","type":"address","internalType":"address"}],"stateMutability":"view"},{"type":"function","name":"poCounter","inputs":[],"outputs":[{"name":"","type":"uint256","internalType":"uint256"}],"stateMutability":"view"},{"type":"function","name":"purchaseOrders","inputs":[{"name":"","type":"uint256","internalType":"uint256"}],"outputs":[{"name":"id","type":"uint256","internalType":"uint256"},{"name":"buyer","type":"address","internalType":"address"},{"name":"supplier","type":"address","internalType":"address"},{"name":"amount","type":"uint256","internalType":"uint256"},{"name":"description","type":"string","internalType":"string"},{"name":"deadline","type":"uint256","internalType":"uint256"},{"name":"status","type":"uint8","internalType":"enum POEscrowV2.POStatus"},{"name":"fundedAmount","type":"uint256","internalType":"uint256"},{"name":"supplierConfirmedDelivery","type":"bool","internalType":"bool"},{"name":"buyerApprovedRelease","type":"bool","internalType":"bool"}],"stateMutability":"view"},{"type":"function","name":"refundPO","inputs":[{"name":"_poId","type":"uint256","internalType":"uint256"}],"outputs":[],"stateMutability":"nonpayable"},{"type":"function","name":"releaseFunds","inputs":[{"name":"_poId","type":"uint256","internalType":"uint256"}],"outputs":[],"stateMutability":"nonpayable"},{"type":"function","name":"renounceOwnership","inputs":[],"outputs":[],"stateMutability":"nonpayable"},{"type":"function","name":"transferOwnership","inputs":[{"name":"newOwner","type":"address","internalType":"address"}],"outputs":[],"stateMutability":"nonpayable"},{"type":"event","name":"DeliveryConfirmed","inputs":[{"name":"poId","type":"uint256","indexed":true,"internalType":"uint256"},{"name":"supplier","type":"address","indexed":false,"internalType":"address"}],"anonymous":false},{"type":"event","name":"FundsReleased","inputs":[{"name":"poId","type":"uint256","indexed":true,"internalType":"uint256"},{"name":"supplier","type":"address","indexed":false,"internalType":"address"},{"name":"amount","type":"uint256","indexed":false,"internalType":"uint256"}],"anonymous":false},{"type":"event","name":"OwnershipTransferred","inputs":[{"name":"previousOwner","type":"address","indexed":true,"internalType":"address"},{"name":"newOwner","type":"address","indexed":true,"internalType":"address"}],"anonymous":false},{"type":"event","name":"POCancelled","inputs":[{"name":"poId","type":"uint256","indexed":true,"internalType":"uint256"}],"anonymous":false},{"type":"event","name":"POCreated","inputs":[{"name":"poId","type":"uint256","indexed":true,"internalType":"uint256"},{"name":"buyer","type":"address","indexed":true,"internalType":"address"},{"name":"supplier","type":"address","indexed":true,"internalType":"address"},{"name":"amount","type":"uint256","indexed":false,"internalType":"uint256"}],"anonymous":false},{"type":"event","name":"POFunded","inputs":[{"name":"poId","type":"uint256","indexed":true,"internalType":"uint256"},{"name":"amount","type":"uint256","indexed":false,"internalType":"uint256"}],"anonymous":false},{"type":"event","name":"PORefunded","inputs":[{"name":"poId","type":"uint256","indexed":true,"internalType":"uint256"},{"name":"buyer","type":"address","indexed":false,"internalType":"address"},{"name":"amount","type":"uint256","indexed":false,"internalType":"uint256"}],"anonymous":false},{"type":"error","name":"OwnableInvalidOwner","inputs":[{"name":"owner","type":"address","internalType":"address"}]},{"type":"error","name":"OwnableUnauthorizedAccount","inputs":[{"name":"account","type":"address","internalType":"address"}]},{"type":"error","name":"ReentrancyGuardReentrantCall","inputs":[]}],"bytecode":{"object":"0x608060405234801561000f575f5ffd5b5033600161002f6100246100ba60201b60201c565b6100e360201b60201c565b5f01819055505f73ffffffffffffffffffffffffffffffffffffffff168173ffffffffffffffffffffffffffffffffffffffff16036100a5575f6040517f1e4fbdf700000000000000000000000000000000000000000000000000000000815260040161009c91906101ec565b60405180910390fd5b6100b4816100ec60201b60201c565b50610205565b5f7f9b779b17422d0df92223018b32b4d1fa46e071723d6817e2486d003becc55f005f1b905090565b5f819050919050565b5f5f5f9054906101000a900473ffffffffffffffffffffffffffffffffffffffff169050815f5f6101000a81548173ffffffffffffffffffffffffffffffffffffffff021916908373ffffffffffffffffffffffffffffffffffffffff1602179055508173ffffffffffffffffffffffffffffffffffffffff168173ffffffffffffffffffffffffffffffffffffffff167f8be0079c531659141344cd1fd0a4f28419497f9722a3daafe3b4186f6b6457e060405160405180910390a35050565b5f73ffffffffffffffffffffffffffffffffffffffff82169050919050565b5f6101d6826101ad565b9050919050565b6101e6816101cc565b82525050565b5f6020820190506101ff5f8301846101dd565b92915050565b612a5b806102125f395ff3fe6080604052600436106100a5575f3560e01c8063715018a611610063578063715018a6146101d25780638da5cb5b146101e85780639488c6af14610212578063f2fde38b1461024e578063f84ac93a14610276578063fd84cb97146102a0576100a5565b806208d446146100a9578063061c17e1146100c55780634324baed146101015780634d5dcb7b1461013d5780634d68282f14610182578063712da7a8146101aa575b5f5ffd5b6100c360048036038101906100be91906117fc565b6102c8565b005b3480156100d0575f5ffd5b506100eb60048036038101906100e691906117fc565b6104f0565b6040516100f8919061189a565b60405180910390f35b34801561010c575f5ffd5b50610127600480360381019061012291906117fc565b610519565b6040516101349190611a71565b60405180910390f35b348015610148575f5ffd5b50610163600480360381019061015e91906117fc565b610715565b6040516101799a99989796959493929190611b06565b60405180910390f35b34801561018d575f5ffd5b506101a860048036038101906101a391906117fc565b61084e565b005b3480156101b5575f5ffd5b506101d060048036038101906101cb91906117fc565b610b9a565b005b3480156101dd575f5ffd5b506101e6610ec0565b005b3480156101f3575f5ffd5b506101fc610ed3565b6040516102099190611ba7565b60405180910390f35b34801561021d575f5ffd5b5061023860048036038101906102339190611d16565b610efa565b6040516102459190611d96565b60405180910390f35b348015610259575f5ffd5b50610274600480360381019061026f9190611daf565b611250565b005b348015610281575f5ffd5b5061028a6112d4565b6040516102979190611d96565b60405180910390f35b3480156102ab575f5ffd5b506102c660048036038101906102c191906117fc565b6112da565b005b6102d0611512565b5f60025f8381526020019081526020015f2090505f815f015403610329576040517f08c379a000000000000000000000000000000000000000000000000000000000815260040161032090611e24565b60405180910390fd5b3373ffffffffffffffffffffffffffffffffffffffff16816001015f9054906101000a900473ffffffffffffffffffffffffffffffffffffffff1673ffffffffffffffffffffffffffffffffffffffff16146103ba576040517f08c379a00000000000000000000000000000000000000000000000000000000081526004016103b190611e8c565b60405180910390fd5b5f60048111156103cd576103cc611827565b5b816006015f9054906101000a900460ff1660048111156103f0576103ef611827565b5b14610430576040517f08c379a000000000000000000000000000000000000000000000000000000000815260040161042790611ef4565b60405180910390fd5b8060030154341015610477576040517f08c379a000000000000000000000000000000000000000000000000000000000815260040161046e90611f5c565b60405180910390fd5b3481600701819055506001816006015f6101000a81548160ff021916908360048111156104a7576104a6611827565b5b0217905550817f83ac857b498c154e8ffeb1c66e59c9a7c2232f4e9e96b05f092db363eb064fdd346040516104dc9190611d96565b60405180910390a2506104ed611534565b50565b5f60025f8381526020019081526020015f206006015f9054906101000a900460ff169050919050565b61052161172c565b60025f8381526020019081526020015f20604051806101400160405290815f8201548152602001600182015f9054906101000a900473ffffffffffffffffffffffffffffffffffffffff1673ffffffffffffffffffffffffffffffffffffffff1673ffffffffffffffffffffffffffffffffffffffff168152602001600282015f9054906101000a900473ffffffffffffffffffffffffffffffffffffffff1673ffffffffffffffffffffffffffffffffffffffff1673ffffffffffffffffffffffffffffffffffffffff1681526020016003820154815260200160048201805461060b90611fa7565b80601f016020809104026020016040519081016040528092919081815260200182805461063790611fa7565b80156106825780601f1061065957610100808354040283529160200191610682565b820191905f5260205f20905b81548152906001019060200180831161066557829003601f168201915b5050505050815260200160058201548152602001600682015f9054906101000a900460ff1660048111156106b9576106b8611827565b5b60048111156106cb576106ca611827565b5b815260200160078201548152602001600882015f9054906101000a900460ff161515151581526020016008820160019054906101000a900460ff1615151515815250509050919050565b6002602052805f5260405f205f91509050805f015490806001015f9054906101000a900473ffffffffffffffffffffffffffffffffffffffff1690806002015f9054906101000a900473ffffffffffffffffffffffffffffffffffffffff169080600301549080600401805461078a90611fa7565b80601f01602080910402602001604051908101604052809291908181526020018280546107b690611fa7565b80156108015780601f106107d857610100808354040283529160200191610801565b820191905f5260205f20905b8154815290600101906020018083116107e457829003601f168201915b505050505090806005015490806006015f9054906101000a900460ff1690806007015490806008015f9054906101000a900460ff16908060080160019054906101000a900460ff1690508a565b610856611512565b5f60025f8381526020019081526020015f2090503373ffffffffffffffffffffffffffffffffffffffff16816001015f9054906101000a900473ffffffffffffffffffffffffffffffffffffffff1673ffffffffffffffffffffffffffffffffffffffff16146108fb576040517f08c379a00000000000000000000000000000000000000000000000000000000081526004016108f290612021565b60405180910390fd5b6002600481111561090f5761090e611827565b5b816006015f9054906101000a900460ff16600481111561093257610931611827565b5b14610972576040517f08c379a000000000000000000000000000000000000000000000000000000000815260040161096990612089565b60405180910390fd5b806008015f9054906101000a900460ff166109c2576040517f08c379a00000000000000000000000000000000000000000000000000000000081526004016109b990612117565b60405180910390fd5b8060080160019054906101000a900460ff1615610a14576040517f08c379a0000000000000000000000000000000000000000000000000000000008152600401610a0b9061217f565b60405180910390fd5b60018160080160016101000a81548160ff0219169083151502179055506003816006015f6101000a81548160ff02191690836004811115610a5857610a57611827565b5b02179055505f816002015f9054906101000a900473ffffffffffffffffffffffffffffffffffffffff1673ffffffffffffffffffffffffffffffffffffffff168260030154604051610aa9906121ca565b5f6040518083038185875af1925050503d805f8114610ae3576040519150601f19603f3d011682016040523d82523d5f602084013e610ae8565b606091505b5050905080610b2c576040517f08c379a0000000000000000000000000000000000000000000000000000000008152600401610b2390612228565b60405180910390fd5b827f6e3c6096795c8298a218b2cfb8bde42726ff7c9a3d27b4d3ba41ab7f74feb5fb836002015f9054906101000a900473ffffffffffffffffffffffffffffffffffffffff168460030154604051610b85929190612246565b60405180910390a25050610b97611534565b50565b610ba2611512565b5f60025f8381526020019081526020015f2090503373ffffffffffffffffffffffffffffffffffffffff16816001015f9054906101000a900473ffffffffffffffffffffffffffffffffffffffff1673ffffffffffffffffffffffffffffffffffffffff1614610c47576040517f08c379a0000000000000000000000000000000000000000000000000000000008152600401610c3e906122b7565b60405180910390fd5b60016004811115610c5b57610c5a611827565b5b816006015f9054906101000a900460ff166004811115610c7e57610c7d611827565b5b1480610cbd57505f6004811115610c9857610c97611827565b5b816006015f9054906101000a900460ff166004811115610cbb57610cba611827565b5b145b610cfc576040517f08c379a0000000000000000000000000000000000000000000000000000000008152600401610cf39061231f565b60405180910390fd5b806008015f9054906101000a900460ff1615610d4d576040517f08c379a0000000000000000000000000000000000000000000000000000000008152600401610d44906123ad565b60405180910390fd5b6004816006015f6101000a81548160ff02191690836004811115610d7457610d73611827565b5b02179055505f816007015490505f82600701819055505f826001015f9054906101000a900473ffffffffffffffffffffffffffffffffffffffff1673ffffffffffffffffffffffffffffffffffffffff1682604051610dd2906121ca565b5f6040518083038185875af1925050503d805f8114610e0c576040519150601f19603f3d011682016040523d82523d5f602084013e610e11565b606091505b5050905080610e55576040517f08c379a0000000000000000000000000000000000000000000000000000000008152600401610e4c90612415565b60405180910390fd5b837f0b31b80b6421bc80390ddc6d5e96dfd4e061a0267c5a44c1be6e880a7ebdd888846001015f9054906101000a900473ffffffffffffffffffffffffffffffffffffffff1684604051610eaa929190612246565b60405180910390a2505050610ebd611534565b50565b610ec861154e565b610ed15f6115d5565b565b5f5f5f9054906101000a900473ffffffffffffffffffffffffffffffffffffffff16905090565b5f5f73ffffffffffffffffffffffffffffffffffffffff168573ffffffffffffffffffffffffffffffffffffffff1603610f69576040517f08c379a0000000000000000000000000000000000000000000000000000000008152600401610f609061247d565b60405180910390fd5b5f8411610fab576040517f08c379a0000000000000000000000000000000000000000000000000000000008152600401610fa2906124e5565b60405180910390fd5b428211610fed576040517f08c379a0000000000000000000000000000000000000000000000000000000008152600401610fe49061254d565b60405180910390fd5b60015f815480929190610fff90612598565b91905055505f60015490506040518061014001604052808281526020013373ffffffffffffffffffffffffffffffffffffffff1681526020018773ffffffffffffffffffffffffffffffffffffffff1681526020018681526020018581526020018481526020015f600481111561107957611078611827565b5b81526020015f81526020015f151581526020015f151581525060025f8381526020019081526020015f205f820151815f01556020820151816001015f6101000a81548173ffffffffffffffffffffffffffffffffffffffff021916908373ffffffffffffffffffffffffffffffffffffffff1602179055506040820151816002015f6101000a81548173ffffffffffffffffffffffffffffffffffffffff021916908373ffffffffffffffffffffffffffffffffffffffff1602179055506060820151816003015560808201518160040190816111569190612790565b5060a0820151816005015560c0820151816006015f6101000a81548160ff0219169083600481111561118b5761118a611827565b5b021790555060e08201518160070155610100820151816008015f6101000a81548160ff0219169083151502179055506101208201518160080160016101000a81548160ff0219169083151502179055509050508573ffffffffffffffffffffffffffffffffffffffff163373ffffffffffffffffffffffffffffffffffffffff16827f45d1dfff439ec443caf19fcd39a62f5fa5b87a0be9d01d2bcedcc322de2af79a8860405161123c9190611d96565b60405180910390a480915050949350505050565b61125861154e565b5f73ffffffffffffffffffffffffffffffffffffffff168173ffffffffffffffffffffffffffffffffffffffff16036112c8575f6040517f1e4fbdf70000000000000000000000000000000000000000000000000000000081526004016112bf9190611ba7565b60405180910390fd5b6112d1816115d5565b50565b60015481565b5f60025f8381526020019081526020015f2090503373ffffffffffffffffffffffffffffffffffffffff16816002015f9054906101000a900473ffffffffffffffffffffffffffffffffffffffff1673ffffffffffffffffffffffffffffffffffffffff161461137f576040517f08c379a0000000000000000000000000000000000000000000000000000000008152600401611376906128cf565b60405180910390fd5b6001600481111561139357611392611827565b5b816006015f9054906101000a900460ff1660048111156113b6576113b5611827565b5b146113f6576040517f08c379a00000000000000000000000000000000000000000000000000000000081526004016113ed90612937565b60405180910390fd5b806008015f9054906101000a900460ff1615611447576040517f08c379a000000000000000000000000000000000000000000000000000000000815260040161143e9061299f565b60405180910390fd5b806005015442111561148e576040517f08c379a000000000000000000000000000000000000000000000000000000000815260040161148590612a07565b60405180910390fd5b6001816008015f6101000a81548160ff0219169083151502179055506002816006015f6101000a81548160ff021916908360048111156114d1576114d0611827565b5b0217905550817f64a783c6150854ae756454311c7625a965c757996ba8cc1a8c6205380f337250336040516115069190611ba7565b60405180910390a25050565b61151a611696565b600261152c6115276116d7565b611700565b5f0181905550565b60016115466115416116d7565b611700565b5f0181905550565b611556611709565b73ffffffffffffffffffffffffffffffffffffffff16611574610ed3565b73ffffffffffffffffffffffffffffffffffffffff16146115d357611597611709565b6040517f118cdaa70000000000000000000000000000000000000000000000000000000081526004016115ca9190611ba7565b60405180910390fd5b565b5f5f5f9054906101000a900473ffffffffffffffffffffffffffffffffffffffff169050815f5f6101000a81548173ffffffffffffffffffffffffffffffffffffffff021916908373ffffffffffffffffffffffffffffffffffffffff1602179055508173ffffffffffffffffffffffffffffffffffffffff168173ffffffffffffffffffffffffffffffffffffffff167f8be0079c531659141344cd1fd0a4f28419497f9722a3daafe3b4186f6b6457e060405160405180910390a35050565b61169e611710565b156116d5576040517f3ee5aeb500000000000000000000000000000000000000000000000000000000815260040160405180910390fd5b565b5f7f9b779b17422d0df92223018b32b4d1fa46e071723d6817e2486d003becc55f005f1b905090565b5f819050919050565b5f33905090565b5f600261172361171e6116d7565b611700565b5f015414905090565b6040518061014001604052805f81526020015f73ffffffffffffffffffffffffffffffffffffffff1681526020015f73ffffffffffffffffffffffffffffffffffffffff1681526020015f8152602001606081526020015f81526020015f600481111561179c5761179b611827565b5b81526020015f81526020015f151581526020015f151581525090565b5f604051905090565b5f5ffd5b5f5ffd5b5f819050919050565b6117db816117c9565b81146117e5575f5ffd5b50565b5f813590506117f6816117d2565b92915050565b5f60208284031215611811576118106117c1565b5b5f61181e848285016117e8565b91505092915050565b7f4e487b71000000000000000000000000000000000000000000000000000000005f52602160045260245ffd5b6005811061186557611864611827565b5b50565b5f81905061187582611854565b919050565b5f61188482611868565b9050919050565b6118948161187a565b82525050565b5f6020820190506118ad5f83018461188b565b92915050565b6118bc816117c9565b82525050565b5f73ffffffffffffffffffffffffffffffffffffffff82169050919050565b5f6118eb826118c2565b9050919050565b6118fb816118e1565b82525050565b5f81519050919050565b5f82825260208201905092915050565b8281835e5f83830152505050565b5f601f19601f8301169050919050565b5f61194382611901565b61194d818561190b565b935061195d81856020860161191b565b61196681611929565b840191505092915050565b61197a8161187a565b82525050565b5f8115159050919050565b61199481611980565b82525050565b5f61014083015f8301516119b05f8601826118b3565b5060208301516119c360208601826118f2565b5060408301516119d660408601826118f2565b5060608301516119e960608601826118b3565b5060808301518482036080860152611a018282611939565b91505060a0830151611a1660a08601826118b3565b5060c0830151611a2960c0860182611971565b5060e0830151611a3c60e08601826118b3565b50610100830151611a5161010086018261198b565b50610120830151611a6661012086018261198b565b508091505092915050565b5f6020820190508181035f830152611a89818461199a565b905092915050565b611a9a816117c9565b82525050565b611aa9816118e1565b82525050565b5f82825260208201905092915050565b5f611ac982611901565b611ad38185611aaf565b9350611ae381856020860161191b565b611aec81611929565b840191505092915050565b611b0081611980565b82525050565b5f61014082019050611b1a5f83018d611a91565b611b27602083018c611aa0565b611b34604083018b611aa0565b611b41606083018a611a91565b8181036080830152611b538189611abf565b9050611b6260a0830188611a91565b611b6f60c083018761188b565b611b7c60e0830186611a91565b611b8a610100830185611af7565b611b98610120830184611af7565b9b9a5050505050505050505050565b5f602082019050611bba5f830184611aa0565b92915050565b611bc9816118e1565b8114611bd3575f5ffd5b50565b5f81359050611be481611bc0565b92915050565b5f5ffd5b5f5ffd5b7f4e487b71000000000000000000000000000000000000000000000000000000005f52604160045260245ffd5b611c2882611929565b810181811067ffffffffffffffff82111715611c4757611c46611bf2565b5b80604052505050565b5f611c596117b8565b9050611c658282611c1f565b919050565b5f67ffffffffffffffff821115611c8457611c83611bf2565b5b611c8d82611929565b9050602081019050919050565b828183375f83830152505050565b5f611cba611cb584611c6a565b611c50565b905082815260208101848484011115611cd657611cd5611bee565b5b611ce1848285611c9a565b509392505050565b5f82601f830112611cfd57611cfc611bea565b5b8135611d0d848260208601611ca8565b91505092915050565b5f5f5f5f60808587031215611d2e57611d2d6117c1565b5b5f611d3b87828801611bd6565b9450506020611d4c878288016117e8565b935050604085013567ffffffffffffffff811115611d6d57611d6c6117c5565b5b611d7987828801611ce9565b9250506060611d8a878288016117e8565b91505092959194509250565b5f602082019050611da95f830184611a91565b92915050565b5f60208284031215611dc457611dc36117c1565b5b5f611dd184828501611bd6565b91505092915050565b7f504f20646f6573206e6f742065786973740000000000000000000000000000005f82015250565b5f611e0e601183611aaf565b9150611e1982611dda565b602082019050919050565b5f6020820190508181035f830152611e3b81611e02565b9050919050565b7f4f6e6c792062757965722063616e2066756e64000000000000000000000000005f82015250565b5f611e76601383611aaf565b9150611e8182611e42565b602082019050919050565b5f6020820190508181035f830152611ea381611e6a565b9050919050565b7f504f206d75737420626520696e204372656174656420737461747573000000005f82015250565b5f611ede601c83611aaf565b9150611ee982611eaa565b602082019050919050565b5f6020820190508181035f830152611f0b81611ed2565b9050919050565b7f496e73756666696369656e742066756e64696e6720616d6f756e7400000000005f82015250565b5f611f46601b83611aaf565b9150611f5182611f12565b602082019050919050565b5f6020820190508181035f830152611f7381611f3a565b9050919050565b7f4e487b71000000000000000000000000000000000000000000000000000000005f52602260045260245ffd5b5f6002820490506001821680611fbe57607f821691505b602082108103611fd157611fd0611f7a565b5b50919050565b7f4f6e6c792062757965722063616e2072656c656173652066756e6473000000005f82015250565b5f61200b601c83611aaf565b915061201682611fd7565b602082019050919050565b5f6020820190508181035f83015261203881611fff565b9050919050565b7f504f206d75737420626520696e2044656c6976657265642073746174757300005f82015250565b5f612073601e83611aaf565b915061207e8261203f565b602082019050919050565b5f6020820190508181035f8301526120a081612067565b9050919050565b7f537570706c696572206d75737420636f6e6669726d2064656c697665727920665f8201527f6972737400000000000000000000000000000000000000000000000000000000602082015250565b5f612101602483611aaf565b915061210c826120a7565b604082019050919050565b5f6020820190508181035f83015261212e816120f5565b9050919050565b7f46756e647320616c72656164792072656c6561736564000000000000000000005f82015250565b5f612169601683611aaf565b915061217482612135565b602082019050919050565b5f6020820190508181035f8301526121968161215d565b9050919050565b5f81905092915050565b50565b5f6121b55f8361219d565b91506121c0826121a7565b5f82019050919050565b5f6121d4826121aa565b9150819050919050565b7f5472616e7366657220746f20737570706c696572206661696c656400000000005f82015250565b5f612212601b83611aaf565b915061221d826121de565b602082019050919050565b5f6020820190508181035f83015261223f81612206565b9050919050565b5f6040820190506122595f830185611aa0565b6122666020830184611a91565b9392505050565b7f4f6e6c792062757965722063616e207265717565737420726566756e640000005f82015250565b5f6122a1601d83611aaf565b91506122ac8261226d565b602082019050919050565b5f6020820190508181035f8301526122ce81612295565b9050919050565b7f43616e6e6f7420726566756e64206174207468697320737461676500000000005f82015250565b5f612309601b83611aaf565b9150612314826122d5565b602082019050919050565b5f6020820190508181035f830152612336816122fd565b9050919050565b7f43616e6e6f7420726566756e642061667465722064656c697665727920636f6e5f8201527f6669726d65640000000000000000000000000000000000000000000000000000602082015250565b5f612397602683611aaf565b91506123a28261233d565b604082019050919050565b5f6020820190508181035f8301526123c48161238b565b9050919050565b7f526566756e64207472616e73666572206661696c6564000000000000000000005f82015250565b5f6123ff601683611aaf565b915061240a826123cb565b602082019050919050565b5f6020820190508181035f83015261242c816123f3565b9050919050565b7f496e76616c696420737570706c696572000000000000000000000000000000005f82015250565b5f612467601083611aaf565b915061247282612433565b602082019050919050565b5f6020820190508181035f8301526124948161245b565b9050919050565b7f416d6f756e74206d7573742062652067726561746572207468616e20300000005f82015250565b5f6124cf601d83611aaf565b91506124da8261249b565b602082019050919050565b5f6020820190508181035f8301526124fc816124c3565b9050919050565b7f446561646c696e65206d75737420626520696e207468652066757475726500005f82015250565b5f612537601e83611aaf565b915061254282612503565b602082019050919050565b5f6020820190508181035f8301526125648161252b565b9050919050565b7f4e487b71000000000000000000000000000000000000000000000000000000005f52601160045260245ffd5b5f6125a2826117c9565b91507fffffffffffffffffffffffffffffffffffffffffffffffffffffffffffffffff82036125d4576125d361256b565b5b600182019050919050565b5f819050815f5260205f209050919050565b5f6020601f8301049050919050565b5f82821b905092915050565b5f6008830261263b7fffffffffffffffffffffffffffffffffffffffffffffffffffffffffffffffff82612600565b6126458683612600565b95508019841693508086168417925050509392505050565b5f819050919050565b5f61268061267b612676846117c9565b61265d565b6117c9565b9050919050565b5f819050919050565b61269983612666565b6126ad6126a582612687565b84845461260c565b825550505050565b5f5f905090565b6126c46126b5565b6126cf818484612690565b505050565b5f5b828110156126f5576126ea5f8284016126bc565b6001810190506126d6565b505050565b601f821115612748578282111561274757612714816125df565b61271d836125f1565b612726856125f1565b6020861015612733575f90505b808301612742828403826126d4565b505050505b5b505050565b5f82821c905092915050565b5f6127685f198460080261274d565b1980831691505092915050565b5f6127808383612759565b9150826002028217905092915050565b61279982611901565b67ffffffffffffffff8111156127b2576127b1611bf2565b5b6127bc8254611fa7565b6127c78282856126fa565b5f60209050601f8311600181146127f8575f84156127e6578287015190505b6127f08582612775565b865550612857565b601f198416612806866125df565b5f5b8281101561282d57848901518255600182019150602085019450602081019050612808565b8683101561284a5784890151612846601f891682612759565b8355505b6001600288020188555050505b505050505050565b7f4f6e6c7920737570706c6965722063616e20636f6e6669726d2064656c6976655f8201527f7279000000000000000000000000000000000000000000000000000000000000602082015250565b5f6128b9602283611aaf565b91506128c48261285f565b604082019050919050565b5f6020820190508181035f8301526128e6816128ad565b9050919050565b7f504f206d7573742062652046756e6465640000000000000000000000000000005f82015250565b5f612921601183611aaf565b915061292c826128ed565b602082019050919050565b5f6020820190508181035f83015261294e81612915565b9050919050565b7f44656c697665727920616c726561647920636f6e6669726d65640000000000005f82015250565b5f612989601a83611aaf565b915061299482612955565b602082019050919050565b5f6020820190508181035f8301526129b68161297d565b9050919050565b7f446561646c696e652068617320706173736564000000000000000000000000005f82015250565b5f6129f1601383611aaf565b91506129fc826129bd565b602082019050919050565b5f6020820190508181035f830152612a1e816129e5565b905091905056fea26469706673582212207c960cd89473b94179135a7ce445e65adaca77c487a2f9194c3305cc6ddf5cf464736f6c63430008230033","linkReferences":{}},"methodIdentifiers":{"confirmDelivery(uint256)":"fd84cb97","createPO(address,uint256,string,uint256)":"9488c6af","fundPO(uint256)":"0008d446","getPO(uint256)":"4324baed","getPOStatus(uint256)":"061c17e1","owner()":"8da5cb5b","poCounter()":"f84ac93a","purchaseOrders(uint256)":"4d5dcb7b","refundPO(uint256)":"712da7a8","releaseFunds(uint256)":"4d68282f","renounceOwnership()":"715018a6","transferOwnership(address)":"f2fde38b"},"id":4}